{
	"bc_project_starter/contracts/DigitalIdentity.sol": {
		"DigitalIdentity": {
			"abi": [
				{
					"inputs": [],
					"name": "AlreadyRegistered",
					"type": "error"
				},
				{
					"inputs": [],
					"name": "CredentialNotFound",
					"type": "error"
				},
				{
					"inputs": [],
					"name": "InvalidParameter",
					"type": "error"
				},
				{
					"inputs": [],
					"name": "UserNotRegistered",
					"type": "error"
				},
				{
					"anonymous": false,
					"inputs": [
						{
							"indexed": true,
							"internalType": "address",
							"name": "owner",
							"type": "address"
						},
						{
							"indexed": true,
							"internalType": "bytes32",
							"name": "credentialTypeHash",
							"type": "bytes32"
						},
						{
							"indexed": false,
							"internalType": "bytes32",
							"name": "credentialHash",
							"type": "bytes32"
						},
						{
							"indexed": false,
							"internalType": "uint256",
							"name": "timestamp",
							"type": "uint256"
						}
					],
					"name": "CredentialStored",
					"type": "event"
				},
				{
					"anonymous": false,
					"inputs": [
						{
							"indexed": true,
							"internalType": "address",
							"name": "user",
							"type": "address"
						},
						{
							"indexed": false,
							"internalType": "bytes32",
							"name": "idHash",
							"type": "bytes32"
						},
						{
							"indexed": false,
							"internalType": "uint256",
							"name": "timestamp",
							"type": "uint256"
						}
					],
					"name": "IdentityRegistered",
					"type": "event"
				},
				{
					"inputs": [
						{
							"internalType": "address",
							"name": "owner",
							"type": "address"
						},
						{
							"internalType": "bytes32",
							"name": "credentialTypeHash",
							"type": "bytes32"
						}
					],
					"name": "CredentialExists",
					"outputs": [
						{
							"internalType": "bool",
							"name": "",
							"type": "bool"
						}
					],
					"stateMutability": "view",
					"type": "function"
				},
				{
					"inputs": [
						{
							"internalType": "address",
							"name": "owner",
							"type": "address"
						},
						{
							"internalType": "bytes32",
							"name": "credentialTypeHash",
							"type": "bytes32"
						}
					],
					"name": "GetCredentialHash",
					"outputs": [
						{
							"internalType": "bytes32",
							"name": "",
							"type": "bytes32"
						}
					],
					"stateMutability": "view",
					"type": "function"
				},
				{
					"inputs": [
						{
							"internalType": "address",
							"name": "user",
							"type": "address"
						}
					],
					"name": "GetUserIdHash",
					"outputs": [
						{
							"internalType": "bytes32",
							"name": "",
							"type": "bytes32"
						}
					],
					"stateMutability": "view",
					"type": "function"
				},
				{
					"inputs": [
						{
							"internalType": "address",
							"name": "user",
							"type": "address"
						}
					],
					"name": "GetUserInfo",
					"outputs": [
						{
							"components": [
								{
									"internalType": "bytes32",
									"name": "idHash",
									"type": "bytes32"
								},
								{
									"internalType": "bytes32",
									"name": "emailHash",
									"type": "bytes32"
								},
								{
									"internalType": "bytes32",
									"name": "studentIdHash",
									"type": "bytes32"
								},
								{
									"internalType": "uint256",
									"name": "registeredAt",
									"type": "uint256"
								},
								{
									"internalType": "bool",
									"name": "exists",
									"type": "bool"
								}
							],
							"internalType": "struct DigitalIdentity.User",
							"name": "",
							"type": "tuple"
						}
					],
					"stateMutability": "view",
					"type": "function"
				},
				{
					"inputs": [
						{
							"internalType": "address",
							"name": "user",
							"type": "address"
						}
					],
					"name": "IsRegistered",
					"outputs": [
						{
							"internalType": "bool",
							"name": "",
							"type": "bool"
						}
					],
					"stateMutability": "view",
					"type": "function"
				},
				{
					"inputs": [
						{
							"internalType": "bytes32",
							"name": "idHash",
							"type": "bytes32"
						},
						{
							"internalType": "bytes32",
							"name": "emailHash",
							"type": "bytes32"
						},
						{
							"internalType": "bytes32",
							"name": "studentIdHash",
							"type": "bytes32"
						}
					],
					"name": "RegisterUser",
					"outputs": [],
					"stateMutability": "nonpayable",
					"type": "function"
				},
				{
					"inputs": [
						{
							"internalType": "bytes32",
							"name": "credentialTypeHash",
							"type": "bytes32"
						},
						{
							"internalType": "bytes32",
							"name": "credentialHash",
							"type": "bytes32"
						}
					],
					"name": "StoreCredential",
					"outputs": [],
					"stateMutability": "nonpayable",
					"type": "function"
				}
			],
			"devdoc": {
				"kind": "dev",
				"methods": {},
				"version": 1
			},
			"evm": {
				"assembly": "    /* \"bc_project_starter/contracts/DigitalIdentity.sol\":299:5024  contract DigitalIdentity {... */\n  mstore(0x40, 0x80)\n  callvalue\n  dup1\n  iszero\n  tag_1\n  jumpi\n  revert(0x00, 0x00)\ntag_1:\n  pop\n  dataSize(sub_0)\n  dup1\n  dataOffset(sub_0)\n  0x00\n  codecopy\n  0x00\n  return\nstop\n\nsub_0: assembly {\n        /* \"bc_project_starter/contracts/DigitalIdentity.sol\":299:5024  contract DigitalIdentity {... */\n      mstore(0x40, 0x80)\n      callvalue\n      dup1\n      iszero\n      tag_1\n      jumpi\n      revert(0x00, 0x00)\n    tag_1:\n      pop\n      jumpi(tag_2, lt(calldatasize, 0x04))\n      shr(0xe0, calldataload(0x00))\n      dup1\n      0x18aa2e4a\n      gt\n      tag_10\n      jumpi\n      dup1\n      0x18aa2e4a\n      eq\n      tag_6\n      jumpi\n      dup1\n      0x2c9387f6\n      eq\n      tag_7\n      jumpi\n      dup1\n      0x4ec507b3\n      eq\n      tag_8\n      jumpi\n      dup1\n      0xc224122d\n      eq\n      tag_9\n      jumpi\n      jump(tag_2)\n    tag_10:\n      dup1\n      0x0e4edc6d\n      eq\n      tag_3\n      jumpi\n      dup1\n      0x11f3ac84\n      eq\n      tag_4\n      jumpi\n      dup1\n      0x15a830d2\n      eq\n      tag_5\n      jumpi\n    tag_2:\n      revert(0x00, 0x00)\n        /* \"bc_project_starter/contracts/DigitalIdentity.sol\":3841:4156  function GetCredentialHash(... */\n    tag_3:\n      tag_11\n      0x04\n      dup1\n      calldatasize\n      sub\n      dup2\n      add\n      swap1\n      tag_12\n      swap2\n      swap1\n      tag_13\n      jump\t// in\n    tag_12:\n      tag_14\n      jump\t// in\n    tag_11:\n      mload(0x40)\n      tag_15\n      swap2\n      swap1\n      tag_16\n      jump\t// in\n    tag_15:\n      mload(0x40)\n      dup1\n      swap2\n      sub\n      swap1\n      return\n        /* \"bc_project_starter/contracts/DigitalIdentity.sol\":2881:3680  function StoreCredential(... */\n    tag_4:\n      tag_17\n      0x04\n      dup1\n      calldatasize\n      sub\n      dup2\n      add\n      swap1\n      tag_18\n      swap2\n      swap1\n      tag_19\n      jump\t// in\n    tag_18:\n      tag_20\n      jump\t// in\n    tag_17:\n      stop\n        /* \"bc_project_starter/contracts/DigitalIdentity.sol\":1973:2739  function RegisterUser(... */\n    tag_5:\n      tag_21\n      0x04\n      dup1\n      calldatasize\n      sub\n      dup2\n      add\n      swap1\n      tag_22\n      swap2\n      swap1\n      tag_23\n      jump\t// in\n    tag_22:\n      tag_24\n      jump\t// in\n    tag_21:\n      stop\n        /* \"bc_project_starter/contracts/DigitalIdentity.sol\":4833:5022  function CredentialExists(... */\n    tag_6:\n      tag_25\n      0x04\n      dup1\n      calldatasize\n      sub\n      dup2\n      add\n      swap1\n      tag_26\n      swap2\n      swap1\n      tag_13\n      jump\t// in\n    tag_26:\n      tag_27\n      jump\t// in\n    tag_25:\n      mload(0x40)\n      tag_28\n      swap2\n      swap1\n      tag_29\n      jump\t// in\n    tag_28:\n      mload(0x40)\n      dup1\n      swap2\n      sub\n      swap1\n      return\n        /* \"bc_project_starter/contracts/DigitalIdentity.sol\":4578:4770  function GetUserInfo(address user) external view returns (User memory) {... */\n    tag_7:\n      tag_30\n      0x04\n      dup1\n      calldatasize\n      sub\n      dup2\n      add\n      swap1\n      tag_31\n      swap2\n      swap1\n      tag_32\n      jump\t// in\n    tag_31:\n      tag_33\n      jump\t// in\n    tag_30:\n      mload(0x40)\n      tag_34\n      swap2\n      swap1\n      tag_35\n      jump\t// in\n    tag_34:\n      mload(0x40)\n      dup1\n      swap2\n      sub\n      swap1\n      return\n        /* \"bc_project_starter/contracts/DigitalIdentity.sol\":4342:4539  function GetUserIdHash(address user) external view returns (bytes32) {... */\n    tag_8:\n      tag_36\n      0x04\n      dup1\n      calldatasize\n      sub\n      dup2\n      add\n      swap1\n      tag_37\n      swap2\n      swap1\n      tag_32\n      jump\t// in\n    tag_37:\n      tag_38\n      jump\t// in\n    tag_36:\n      mload(0x40)\n      tag_39\n      swap2\n      swap1\n      tag_16\n      jump\t// in\n    tag_39:\n      mload(0x40)\n      dup1\n      swap2\n      sub\n      swap1\n      return\n        /* \"bc_project_starter/contracts/DigitalIdentity.sol\":4200:4307  function IsRegistered(address user) external view returns (bool) {... */\n    tag_9:\n      tag_40\n      0x04\n      dup1\n      calldatasize\n      sub\n      dup2\n      add\n      swap1\n      tag_41\n      swap2\n      swap1\n      tag_32\n      jump\t// in\n    tag_41:\n      tag_42\n      jump\t// in\n    tag_40:\n      mload(0x40)\n      tag_43\n      swap2\n      swap1\n      tag_29\n      jump\t// in\n    tag_43:\n      mload(0x40)\n      dup1\n      swap2\n      sub\n      swap1\n      return\n        /* \"bc_project_starter/contracts/DigitalIdentity.sol\":3841:4156  function GetCredentialHash(... */\n    tag_14:\n        /* \"bc_project_starter/contracts/DigitalIdentity.sol\":3956:3963  bytes32 */\n      0x00\n        /* \"bc_project_starter/contracts/DigitalIdentity.sol\":3980:3991  credentials */\n      0x01\n        /* \"bc_project_starter/contracts/DigitalIdentity.sol\":3980:3998  credentials[owner] */\n      0x00\n        /* \"bc_project_starter/contracts/DigitalIdentity.sol\":3992:3997  owner */\n      dup5\n        /* \"bc_project_starter/contracts/DigitalIdentity.sol\":3980:3998  credentials[owner] */\n      0xffffffffffffffffffffffffffffffffffffffff\n      and\n      0xffffffffffffffffffffffffffffffffffffffff\n      and\n      dup2\n      mstore\n      0x20\n      add\n      swap1\n      dup2\n      mstore\n      0x20\n      add\n      0x00\n      keccak256\n        /* \"bc_project_starter/contracts/DigitalIdentity.sol\":3980:4018  credentials[owner][credentialTypeHash] */\n      0x00\n        /* \"bc_project_starter/contracts/DigitalIdentity.sol\":3999:4017  credentialTypeHash */\n      dup4\n        /* \"bc_project_starter/contracts/DigitalIdentity.sol\":3980:4018  credentials[owner][credentialTypeHash] */\n      dup2\n      mstore\n      0x20\n      add\n      swap1\n      dup2\n      mstore\n      0x20\n      add\n      0x00\n      keccak256\n        /* \"bc_project_starter/contracts/DigitalIdentity.sol\":3980:4025  credentials[owner][credentialTypeHash].exists */\n      0x02\n      add\n      0x00\n      swap1\n      sload\n      swap1\n      0x0100\n      exp\n      swap1\n      div\n      0xff\n      and\n        /* \"bc_project_starter/contracts/DigitalIdentity.sol\":3975:4079  if (!credentials[owner][credentialTypeHash].exists) {... */\n      tag_45\n      jumpi\n        /* \"bc_project_starter/contracts/DigitalIdentity.sol\":4048:4068  CredentialNotFound() */\n      mload(0x40)\n      0xb7199d4c00000000000000000000000000000000000000000000000000000000\n      dup2\n      mstore\n      0x04\n      add\n      mload(0x40)\n      dup1\n      swap2\n      sub\n      swap1\n      revert\n        /* \"bc_project_starter/contracts/DigitalIdentity.sol\":3975:4079  if (!credentials[owner][credentialTypeHash].exists) {... */\n    tag_45:\n        /* \"bc_project_starter/contracts/DigitalIdentity.sol\":4096:4107  credentials */\n      0x01\n        /* \"bc_project_starter/contracts/DigitalIdentity.sol\":4096:4114  credentials[owner] */\n      0x00\n        /* \"bc_project_starter/contracts/DigitalIdentity.sol\":4108:4113  owner */\n      dup5\n        /* \"bc_project_starter/contracts/DigitalIdentity.sol\":4096:4114  credentials[owner] */\n      0xffffffffffffffffffffffffffffffffffffffff\n      and\n      0xffffffffffffffffffffffffffffffffffffffff\n      and\n      dup2\n      mstore\n      0x20\n      add\n      swap1\n      dup2\n      mstore\n      0x20\n      add\n      0x00\n      keccak256\n        /* \"bc_project_starter/contracts/DigitalIdentity.sol\":4096:4134  credentials[owner][credentialTypeHash] */\n      0x00\n        /* \"bc_project_starter/contracts/DigitalIdentity.sol\":4115:4133  credentialTypeHash */\n      dup4\n        /* \"bc_project_starter/contracts/DigitalIdentity.sol\":4096:4134  credentials[owner][credentialTypeHash] */\n      dup2\n      mstore\n      0x20\n      add\n      swap1\n      dup2\n      mstore\n      0x20\n      add\n      0x00\n      keccak256\n        /* \"bc_project_starter/contracts/DigitalIdentity.sol\":4096:4149  credentials[owner][credentialTypeHash].credentialHash */\n      0x00\n      add\n      sload\n        /* \"bc_project_starter/contracts/DigitalIdentity.sol\":4089:4149  return credentials[owner][credentialTypeHash].credentialHash */\n      swap1\n      pop\n        /* \"bc_project_starter/contracts/DigitalIdentity.sol\":3841:4156  function GetCredentialHash(... */\n      swap3\n      swap2\n      pop\n      pop\n      jump\t// out\n        /* \"bc_project_starter/contracts/DigitalIdentity.sol\":2881:3680  function StoreCredential(... */\n    tag_20:\n        /* \"bc_project_starter/contracts/DigitalIdentity.sol\":3043:3048  users */\n      0x00\n        /* \"bc_project_starter/contracts/DigitalIdentity.sol\":3043:3060  users[msg.sender] */\n      0x00\n        /* \"bc_project_starter/contracts/DigitalIdentity.sol\":3049:3059  msg.sender */\n      caller\n        /* \"bc_project_starter/contracts/DigitalIdentity.sol\":3043:3060  users[msg.sender] */\n      0xffffffffffffffffffffffffffffffffffffffff\n      and\n      0xffffffffffffffffffffffffffffffffffffffff\n      and\n      dup2\n      mstore\n      0x20\n      add\n      swap1\n      dup2\n      mstore\n      0x20\n      add\n      0x00\n      keccak256\n        /* \"bc_project_starter/contracts/DigitalIdentity.sol\":3043:3067  users[msg.sender].exists */\n      0x04\n      add\n      0x00\n      swap1\n      sload\n      swap1\n      0x0100\n      exp\n      swap1\n      div\n      0xff\n      and\n        /* \"bc_project_starter/contracts/DigitalIdentity.sol\":3038:3120  if (!users[msg.sender].exists) {... */\n      tag_47\n      jumpi\n        /* \"bc_project_starter/contracts/DigitalIdentity.sol\":3090:3109  UserNotRegistered() */\n      mload(0x40)\n      0x2163950f00000000000000000000000000000000000000000000000000000000\n      dup2\n      mstore\n      0x04\n      add\n      mload(0x40)\n      dup1\n      swap2\n      sub\n      swap1\n      revert\n        /* \"bc_project_starter/contracts/DigitalIdentity.sol\":3038:3120  if (!users[msg.sender].exists) {... */\n    tag_47:\n        /* \"bc_project_starter/contracts/DigitalIdentity.sol\":3208:3209  0 */\n      0x00\n        /* \"bc_project_starter/contracts/DigitalIdentity.sol\":3200:3210  bytes32(0) */\n      0x00\n      shl\n        /* \"bc_project_starter/contracts/DigitalIdentity.sol\":3178:3196  credentialTypeHash */\n      dup3\n        /* \"bc_project_starter/contracts/DigitalIdentity.sol\":3178:3210  credentialTypeHash == bytes32(0) */\n      eq\n        /* \"bc_project_starter/contracts/DigitalIdentity.sol\":3178:3242  credentialTypeHash == bytes32(0) || credentialHash == bytes32(0) */\n      dup1\n      tag_48\n      jumpi\n      pop\n        /* \"bc_project_starter/contracts/DigitalIdentity.sol\":3240:3241  0 */\n      0x00\n        /* \"bc_project_starter/contracts/DigitalIdentity.sol\":3232:3242  bytes32(0) */\n      0x00\n      shl\n        /* \"bc_project_starter/contracts/DigitalIdentity.sol\":3214:3228  credentialHash */\n      dup2\n        /* \"bc_project_starter/contracts/DigitalIdentity.sol\":3214:3242  credentialHash == bytes32(0) */\n      eq\n        /* \"bc_project_starter/contracts/DigitalIdentity.sol\":3178:3242  credentialTypeHash == bytes32(0) || credentialHash == bytes32(0) */\n    tag_48:\n        /* \"bc_project_starter/contracts/DigitalIdentity.sol\":3174:3294  if (credentialTypeHash == bytes32(0) || credentialHash == bytes32(0)) {... */\n      iszero\n      tag_49\n      jumpi\n        /* \"bc_project_starter/contracts/DigitalIdentity.sol\":3265:3283  InvalidParameter() */\n      mload(0x40)\n      0x613970e000000000000000000000000000000000000000000000000000000000\n      dup2\n      mstore\n      0x04\n      add\n      mload(0x40)\n      dup1\n      swap2\n      sub\n      swap1\n      revert\n        /* \"bc_project_starter/contracts/DigitalIdentity.sol\":3174:3294  if (credentialTypeHash == bytes32(0) || credentialHash == bytes32(0)) {... */\n    tag_49:\n        /* \"bc_project_starter/contracts/DigitalIdentity.sol\":3387:3518  Credential({... */\n      mload(0x40)\n      dup1\n      0x60\n      add\n      0x40\n      mstore\n      dup1\n        /* \"bc_project_starter/contracts/DigitalIdentity.sol\":3428:3442  credentialHash */\n      dup3\n        /* \"bc_project_starter/contracts/DigitalIdentity.sol\":3387:3518  Credential({... */\n      dup2\n      mstore\n      0x20\n      add\n        /* \"bc_project_starter/contracts/DigitalIdentity.sol\":3466:3481  block.timestamp */\n      timestamp\n        /* \"bc_project_starter/contracts/DigitalIdentity.sol\":3387:3518  Credential({... */\n      dup2\n      mstore\n      0x20\n      add\n        /* \"bc_project_starter/contracts/DigitalIdentity.sol\":3503:3507  true */\n      0x01\n        /* \"bc_project_starter/contracts/DigitalIdentity.sol\":3387:3518  Credential({... */\n      iszero\n      iszero\n      dup2\n      mstore\n      pop\n        /* \"bc_project_starter/contracts/DigitalIdentity.sol\":3341:3352  credentials */\n      0x01\n        /* \"bc_project_starter/contracts/DigitalIdentity.sol\":3341:3364  credentials[msg.sender] */\n      0x00\n        /* \"bc_project_starter/contracts/DigitalIdentity.sol\":3353:3363  msg.sender */\n      caller\n        /* \"bc_project_starter/contracts/DigitalIdentity.sol\":3341:3364  credentials[msg.sender] */\n      0xffffffffffffffffffffffffffffffffffffffff\n      and\n      0xffffffffffffffffffffffffffffffffffffffff\n      and\n      dup2\n      mstore\n      0x20\n      add\n      swap1\n      dup2\n      mstore\n      0x20\n      add\n      0x00\n      keccak256\n        /* \"bc_project_starter/contracts/DigitalIdentity.sol\":3341:3384  credentials[msg.sender][credentialTypeHash] */\n      0x00\n        /* \"bc_project_starter/contracts/DigitalIdentity.sol\":3365:3383  credentialTypeHash */\n      dup5\n        /* \"bc_project_starter/contracts/DigitalIdentity.sol\":3341:3384  credentials[msg.sender][credentialTypeHash] */\n      dup2\n      mstore\n      0x20\n      add\n      swap1\n      dup2\n      mstore\n      0x20\n      add\n      0x00\n      keccak256\n        /* \"bc_project_starter/contracts/DigitalIdentity.sol\":3341:3518  credentials[msg.sender][credentialTypeHash] = Credential({... */\n      0x00\n      dup3\n      add\n      mload\n      dup2\n      0x00\n      add\n      sstore\n      0x20\n      dup3\n      add\n      mload\n      dup2\n      0x01\n      add\n      sstore\n      0x40\n      dup3\n      add\n      mload\n      dup2\n      0x02\n      add\n      exp(0x0100, 0x00)\n      dup2\n      sload\n      dup2\n      0xff\n      mul\n      not\n      and\n      swap1\n      dup4\n      iszero\n      iszero\n      mul\n      or\n      swap1\n      sstore\n      pop\n      swap1\n      pop\n      pop\n        /* \"bc_project_starter/contracts/DigitalIdentity.sol\":3588:3606  credentialTypeHash */\n      dup2\n        /* \"bc_project_starter/contracts/DigitalIdentity.sol\":3564:3574  msg.sender */\n      caller\n        /* \"bc_project_starter/contracts/DigitalIdentity.sol\":3534:3673  CredentialStored(... */\n      0xffffffffffffffffffffffffffffffffffffffff\n      and\n      0x0fb5f20f00cf5cd7248db4b40ceac29f091da1108a255d3955537db9038b443b\n        /* \"bc_project_starter/contracts/DigitalIdentity.sol\":3620:3634  credentialHash */\n      dup4\n        /* \"bc_project_starter/contracts/DigitalIdentity.sol\":3648:3663  block.timestamp */\n      timestamp\n        /* \"bc_project_starter/contracts/DigitalIdentity.sol\":3534:3673  CredentialStored(... */\n      mload(0x40)\n      tag_50\n      swap3\n      swap2\n      swap1\n      tag_51\n      jump\t// in\n    tag_50:\n      mload(0x40)\n      dup1\n      swap2\n      sub\n      swap1\n      log3\n        /* \"bc_project_starter/contracts/DigitalIdentity.sol\":2881:3680  function StoreCredential(... */\n      pop\n      pop\n      jump\t// out\n        /* \"bc_project_starter/contracts/DigitalIdentity.sol\":1973:2739  function RegisterUser(... */\n    tag_24:\n        /* \"bc_project_starter/contracts/DigitalIdentity.sol\":2138:2143  users */\n      0x00\n        /* \"bc_project_starter/contracts/DigitalIdentity.sol\":2138:2155  users[msg.sender] */\n      0x00\n        /* \"bc_project_starter/contracts/DigitalIdentity.sol\":2144:2154  msg.sender */\n      caller\n        /* \"bc_project_starter/contracts/DigitalIdentity.sol\":2138:2155  users[msg.sender] */\n      0xffffffffffffffffffffffffffffffffffffffff\n      and\n      0xffffffffffffffffffffffffffffffffffffffff\n      and\n      dup2\n      mstore\n      0x20\n      add\n      swap1\n      dup2\n      mstore\n      0x20\n      add\n      0x00\n      keccak256\n        /* \"bc_project_starter/contracts/DigitalIdentity.sol\":2138:2162  users[msg.sender].exists */\n      0x04\n      add\n      0x00\n      swap1\n      sload\n      swap1\n      0x0100\n      exp\n      swap1\n      div\n      0xff\n      and\n        /* \"bc_project_starter/contracts/DigitalIdentity.sol\":2134:2215  if (users[msg.sender].exists) {... */\n      iszero\n      tag_53\n      jumpi\n        /* \"bc_project_starter/contracts/DigitalIdentity.sol\":2185:2204  AlreadyRegistered() */\n      mload(0x40)\n      0x3a81d6fc00000000000000000000000000000000000000000000000000000000\n      dup2\n      mstore\n      0x04\n      add\n      mload(0x40)\n      dup1\n      swap2\n      sub\n      swap1\n      revert\n        /* \"bc_project_starter/contracts/DigitalIdentity.sol\":2134:2215  if (users[msg.sender].exists) {... */\n    tag_53:\n        /* \"bc_project_starter/contracts/DigitalIdentity.sol\":2300:2301  0 */\n      0x00\n        /* \"bc_project_starter/contracts/DigitalIdentity.sol\":2292:2302  bytes32(0) */\n      0x00\n      shl\n        /* \"bc_project_starter/contracts/DigitalIdentity.sol\":2282:2288  idHash */\n      dup4\n        /* \"bc_project_starter/contracts/DigitalIdentity.sol\":2282:2302  idHash == bytes32(0) */\n      eq\n        /* \"bc_project_starter/contracts/DigitalIdentity.sol\":2282:2329  idHash == bytes32(0) || emailHash == bytes32(0) */\n      dup1\n      tag_54\n      jumpi\n      pop\n        /* \"bc_project_starter/contracts/DigitalIdentity.sol\":2327:2328  0 */\n      0x00\n        /* \"bc_project_starter/contracts/DigitalIdentity.sol\":2319:2329  bytes32(0) */\n      0x00\n      shl\n        /* \"bc_project_starter/contracts/DigitalIdentity.sol\":2306:2315  emailHash */\n      dup3\n        /* \"bc_project_starter/contracts/DigitalIdentity.sol\":2306:2329  emailHash == bytes32(0) */\n      eq\n        /* \"bc_project_starter/contracts/DigitalIdentity.sol\":2282:2329  idHash == bytes32(0) || emailHash == bytes32(0) */\n    tag_54:\n        /* \"bc_project_starter/contracts/DigitalIdentity.sol\":2282:2360  idHash == bytes32(0) || emailHash == bytes32(0) || studentIdHash == bytes32(0) */\n      dup1\n      tag_55\n      jumpi\n      pop\n        /* \"bc_project_starter/contracts/DigitalIdentity.sol\":2358:2359  0 */\n      0x00\n        /* \"bc_project_starter/contracts/DigitalIdentity.sol\":2350:2360  bytes32(0) */\n      0x00\n      shl\n        /* \"bc_project_starter/contracts/DigitalIdentity.sol\":2333:2346  studentIdHash */\n      dup2\n        /* \"bc_project_starter/contracts/DigitalIdentity.sol\":2333:2360  studentIdHash == bytes32(0) */\n      eq\n        /* \"bc_project_starter/contracts/DigitalIdentity.sol\":2282:2360  idHash == bytes32(0) || emailHash == bytes32(0) || studentIdHash == bytes32(0) */\n    tag_55:\n        /* \"bc_project_starter/contracts/DigitalIdentity.sol\":2278:2412  if (idHash == bytes32(0) || emailHash == bytes32(0) || studentIdHash == bytes32(0)) {... */\n      iszero\n      tag_56\n      jumpi\n        /* \"bc_project_starter/contracts/DigitalIdentity.sol\":2383:2401  InvalidParameter() */\n      mload(0x40)\n      0x613970e000000000000000000000000000000000000000000000000000000000\n      dup2\n      mstore\n      0x04\n      add\n      mload(0x40)\n      dup1\n      swap2\n      sub\n      swap1\n      revert\n        /* \"bc_project_starter/contracts/DigitalIdentity.sol\":2278:2412  if (idHash == bytes32(0) || emailHash == bytes32(0) || studentIdHash == bytes32(0)) {... */\n    tag_56:\n        /* \"bc_project_starter/contracts/DigitalIdentity.sol\":2472:2661  User({... */\n      mload(0x40)\n      dup1\n      0xa0\n      add\n      0x40\n      mstore\n      dup1\n        /* \"bc_project_starter/contracts/DigitalIdentity.sol\":2499:2505  idHash */\n      dup5\n        /* \"bc_project_starter/contracts/DigitalIdentity.sol\":2472:2661  User({... */\n      dup2\n      mstore\n      0x20\n      add\n        /* \"bc_project_starter/contracts/DigitalIdentity.sol\":2530:2539  emailHash */\n      dup4\n        /* \"bc_project_starter/contracts/DigitalIdentity.sol\":2472:2661  User({... */\n      dup2\n      mstore\n      0x20\n      add\n        /* \"bc_project_starter/contracts/DigitalIdentity.sol\":2568:2581  studentIdHash */\n      dup3\n        /* \"bc_project_starter/contracts/DigitalIdentity.sol\":2472:2661  User({... */\n      dup2\n      mstore\n      0x20\n      add\n        /* \"bc_project_starter/contracts/DigitalIdentity.sol\":2609:2624  block.timestamp */\n      timestamp\n        /* \"bc_project_starter/contracts/DigitalIdentity.sol\":2472:2661  User({... */\n      dup2\n      mstore\n      0x20\n      add\n        /* \"bc_project_starter/contracts/DigitalIdentity.sol\":2646:2650  true */\n      0x01\n        /* \"bc_project_starter/contracts/DigitalIdentity.sol\":2472:2661  User({... */\n      iszero\n      iszero\n      dup2\n      mstore\n      pop\n        /* \"bc_project_starter/contracts/DigitalIdentity.sol\":2452:2457  users */\n      0x00\n        /* \"bc_project_starter/contracts/DigitalIdentity.sol\":2452:2469  users[msg.sender] */\n      0x00\n        /* \"bc_project_starter/contracts/DigitalIdentity.sol\":2458:2468  msg.sender */\n      caller\n        /* \"bc_project_starter/contracts/DigitalIdentity.sol\":2452:2469  users[msg.sender] */\n      0xffffffffffffffffffffffffffffffffffffffff\n      and\n      0xffffffffffffffffffffffffffffffffffffffff\n      and\n      dup2\n      mstore\n      0x20\n      add\n      swap1\n      dup2\n      mstore\n      0x20\n      add\n      0x00\n      keccak256\n        /* \"bc_project_starter/contracts/DigitalIdentity.sol\":2452:2661  users[msg.sender] = User({... */\n      0x00\n      dup3\n      add\n      mload\n      dup2\n      0x00\n      add\n      sstore\n      0x20\n      dup3\n      add\n      mload\n      dup2\n      0x01\n      add\n      sstore\n      0x40\n      dup3\n      add\n      mload\n      dup2\n      0x02\n      add\n      sstore\n      0x60\n      dup3\n      add\n      mload\n      dup2\n      0x03\n      add\n      sstore\n      0x80\n      dup3\n      add\n      mload\n      dup2\n      0x04\n      add\n      exp(0x0100, 0x00)\n      dup2\n      sload\n      dup2\n      0xff\n      mul\n      not\n      and\n      swap1\n      dup4\n      iszero\n      iszero\n      mul\n      or\n      swap1\n      sstore\n      pop\n      swap1\n      pop\n      pop\n        /* \"bc_project_starter/contracts/DigitalIdentity.sol\":2696:2706  msg.sender */\n      caller\n        /* \"bc_project_starter/contracts/DigitalIdentity.sol\":2677:2732  IdentityRegistered(msg.sender, idHash, block.timestamp) */\n      0xffffffffffffffffffffffffffffffffffffffff\n      and\n      0xd1728799782e5ec0cad3e312c9701f68dcc48de6a9d86a1e47a80abfe63a9cb0\n        /* \"bc_project_starter/contracts/DigitalIdentity.sol\":2708:2714  idHash */\n      dup5\n        /* \"bc_project_starter/contracts/DigitalIdentity.sol\":2716:2731  block.timestamp */\n      timestamp\n        /* \"bc_project_starter/contracts/DigitalIdentity.sol\":2677:2732  IdentityRegistered(msg.sender, idHash, block.timestamp) */\n      mload(0x40)\n      tag_57\n      swap3\n      swap2\n      swap1\n      tag_51\n      jump\t// in\n    tag_57:\n      mload(0x40)\n      dup1\n      swap2\n      sub\n      swap1\n      log2\n        /* \"bc_project_starter/contracts/DigitalIdentity.sol\":1973:2739  function RegisterUser(... */\n      pop\n      pop\n      pop\n      jump\t// out\n        /* \"bc_project_starter/contracts/DigitalIdentity.sol\":4833:5022  function CredentialExists(... */\n    tag_27:\n        /* \"bc_project_starter/contracts/DigitalIdentity.sol\":4947:4951  bool */\n      0x00\n        /* \"bc_project_starter/contracts/DigitalIdentity.sol\":4970:4981  credentials */\n      0x01\n        /* \"bc_project_starter/contracts/DigitalIdentity.sol\":4970:4988  credentials[owner] */\n      0x00\n        /* \"bc_project_starter/contracts/DigitalIdentity.sol\":4982:4987  owner */\n      dup5\n        /* \"bc_project_starter/contracts/DigitalIdentity.sol\":4970:4988  credentials[owner] */\n      0xffffffffffffffffffffffffffffffffffffffff\n      and\n      0xffffffffffffffffffffffffffffffffffffffff\n      and\n      dup2\n      mstore\n      0x20\n      add\n      swap1\n      dup2\n      mstore\n      0x20\n      add\n      0x00\n      keccak256\n        /* \"bc_project_starter/contracts/DigitalIdentity.sol\":4970:5008  credentials[owner][credentialTypeHash] */\n      0x00\n        /* \"bc_project_starter/contracts/DigitalIdentity.sol\":4989:5007  credentialTypeHash */\n      dup4\n        /* \"bc_project_starter/contracts/DigitalIdentity.sol\":4970:5008  credentials[owner][credentialTypeHash] */\n      dup2\n      mstore\n      0x20\n      add\n      swap1\n      dup2\n      mstore\n      0x20\n      add\n      0x00\n      keccak256\n        /* \"bc_project_starter/contracts/DigitalIdentity.sol\":4970:5015  credentials[owner][credentialTypeHash].exists */\n      0x02\n      add\n      0x00\n      swap1\n      sload\n      swap1\n      0x0100\n      exp\n      swap1\n      div\n      0xff\n      and\n        /* \"bc_project_starter/contracts/DigitalIdentity.sol\":4963:5015  return credentials[owner][credentialTypeHash].exists */\n      swap1\n      pop\n        /* \"bc_project_starter/contracts/DigitalIdentity.sol\":4833:5022  function CredentialExists(... */\n      swap3\n      swap2\n      pop\n      pop\n      jump\t// out\n        /* \"bc_project_starter/contracts/DigitalIdentity.sol\":4578:4770  function GetUserInfo(address user) external view returns (User memory) {... */\n    tag_33:\n        /* \"bc_project_starter/contracts/DigitalIdentity.sol\":4636:4647  User memory */\n      tag_59\n      tag_60\n      jump\t// in\n    tag_59:\n        /* \"bc_project_starter/contracts/DigitalIdentity.sol\":4664:4669  users */\n      0x00\n        /* \"bc_project_starter/contracts/DigitalIdentity.sol\":4664:4675  users[user] */\n      0x00\n        /* \"bc_project_starter/contracts/DigitalIdentity.sol\":4670:4674  user */\n      dup4\n        /* \"bc_project_starter/contracts/DigitalIdentity.sol\":4664:4675  users[user] */\n      0xffffffffffffffffffffffffffffffffffffffff\n      and\n      0xffffffffffffffffffffffffffffffffffffffff\n      and\n      dup2\n      mstore\n      0x20\n      add\n      swap1\n      dup2\n      mstore\n      0x20\n      add\n      0x00\n      keccak256\n        /* \"bc_project_starter/contracts/DigitalIdentity.sol\":4664:4682  users[user].exists */\n      0x04\n      add\n      0x00\n      swap1\n      sload\n      swap1\n      0x0100\n      exp\n      swap1\n      div\n      0xff\n      and\n        /* \"bc_project_starter/contracts/DigitalIdentity.sol\":4659:4735  if (!users[user].exists) {... */\n      tag_62\n      jumpi\n        /* \"bc_project_starter/contracts/DigitalIdentity.sol\":4705:4724  UserNotRegistered() */\n      mload(0x40)\n      0x2163950f00000000000000000000000000000000000000000000000000000000\n      dup2\n      mstore\n      0x04\n      add\n      mload(0x40)\n      dup1\n      swap2\n      sub\n      swap1\n      revert\n        /* \"bc_project_starter/contracts/DigitalIdentity.sol\":4659:4735  if (!users[user].exists) {... */\n    tag_62:\n        /* \"bc_project_starter/contracts/DigitalIdentity.sol\":4752:4757  users */\n      0x00\n        /* \"bc_project_starter/contracts/DigitalIdentity.sol\":4752:4763  users[user] */\n      0x00\n        /* \"bc_project_starter/contracts/DigitalIdentity.sol\":4758:4762  user */\n      dup4\n        /* \"bc_project_starter/contracts/DigitalIdentity.sol\":4752:4763  users[user] */\n      0xffffffffffffffffffffffffffffffffffffffff\n      and\n      0xffffffffffffffffffffffffffffffffffffffff\n      and\n      dup2\n      mstore\n      0x20\n      add\n      swap1\n      dup2\n      mstore\n      0x20\n      add\n      0x00\n      keccak256\n        /* \"bc_project_starter/contracts/DigitalIdentity.sol\":4745:4763  return users[user] */\n      mload(0x40)\n      dup1\n      0xa0\n      add\n      0x40\n      mstore\n      swap1\n      dup2\n      0x00\n      dup3\n      add\n      sload\n      dup2\n      mstore\n      0x20\n      add\n      0x01\n      dup3\n      add\n      sload\n      dup2\n      mstore\n      0x20\n      add\n      0x02\n      dup3\n      add\n      sload\n      dup2\n      mstore\n      0x20\n      add\n      0x03\n      dup3\n      add\n      sload\n      dup2\n      mstore\n      0x20\n      add\n      0x04\n      dup3\n      add\n      0x00\n      swap1\n      sload\n      swap1\n      0x0100\n      exp\n      swap1\n      div\n      0xff\n      and\n      iszero\n      iszero\n      iszero\n      iszero\n      dup2\n      mstore\n      pop\n      pop\n      swap1\n      pop\n        /* \"bc_project_starter/contracts/DigitalIdentity.sol\":4578:4770  function GetUserInfo(address user) external view returns (User memory) {... */\n      swap2\n      swap1\n      pop\n      jump\t// out\n        /* \"bc_project_starter/contracts/DigitalIdentity.sol\":4342:4539  function GetUserIdHash(address user) external view returns (bytes32) {... */\n    tag_38:\n        /* \"bc_project_starter/contracts/DigitalIdentity.sol\":4402:4409  bytes32 */\n      0x00\n        /* \"bc_project_starter/contracts/DigitalIdentity.sol\":4426:4431  users */\n      0x00\n        /* \"bc_project_starter/contracts/DigitalIdentity.sol\":4426:4437  users[user] */\n      0x00\n        /* \"bc_project_starter/contracts/DigitalIdentity.sol\":4432:4436  user */\n      dup4\n        /* \"bc_project_starter/contracts/DigitalIdentity.sol\":4426:4437  users[user] */\n      0xffffffffffffffffffffffffffffffffffffffff\n      and\n      0xffffffffffffffffffffffffffffffffffffffff\n      and\n      dup2\n      mstore\n      0x20\n      add\n      swap1\n      dup2\n      mstore\n      0x20\n      add\n      0x00\n      keccak256\n        /* \"bc_project_starter/contracts/DigitalIdentity.sol\":4426:4444  users[user].exists */\n      0x04\n      add\n      0x00\n      swap1\n      sload\n      swap1\n      0x0100\n      exp\n      swap1\n      div\n      0xff\n      and\n        /* \"bc_project_starter/contracts/DigitalIdentity.sol\":4421:4497  if (!users[user].exists) {... */\n      tag_64\n      jumpi\n        /* \"bc_project_starter/contracts/DigitalIdentity.sol\":4467:4486  UserNotRegistered() */\n      mload(0x40)\n      0x2163950f00000000000000000000000000000000000000000000000000000000\n      dup2\n      mstore\n      0x04\n      add\n      mload(0x40)\n      dup1\n      swap2\n      sub\n      swap1\n      revert\n        /* \"bc_project_starter/contracts/DigitalIdentity.sol\":4421:4497  if (!users[user].exists) {... */\n    tag_64:\n        /* \"bc_project_starter/contracts/DigitalIdentity.sol\":4514:4519  users */\n      0x00\n        /* \"bc_project_starter/contracts/DigitalIdentity.sol\":4514:4525  users[user] */\n      0x00\n        /* \"bc_project_starter/contracts/DigitalIdentity.sol\":4520:4524  user */\n      dup4\n        /* \"bc_project_starter/contracts/DigitalIdentity.sol\":4514:4525  users[user] */\n      0xffffffffffffffffffffffffffffffffffffffff\n      and\n      0xffffffffffffffffffffffffffffffffffffffff\n      and\n      dup2\n      mstore\n      0x20\n      add\n      swap1\n      dup2\n      mstore\n      0x20\n      add\n      0x00\n      keccak256\n        /* \"bc_project_starter/contracts/DigitalIdentity.sol\":4514:4532  users[user].idHash */\n      0x00\n      add\n      sload\n        /* \"bc_project_starter/contracts/DigitalIdentity.sol\":4507:4532  return users[user].idHash */\n      swap1\n      pop\n        /* \"bc_project_starter/contracts/DigitalIdentity.sol\":4342:4539  function GetUserIdHash(address user) external view returns (bytes32) {... */\n      swap2\n      swap1\n      pop\n      jump\t// out\n        /* \"bc_project_starter/contracts/DigitalIdentity.sol\":4200:4307  function IsRegistered(address user) external view returns (bool) {... */\n    tag_42:\n        /* \"bc_project_starter/contracts/DigitalIdentity.sol\":4259:4263  bool */\n      0x00\n        /* \"bc_project_starter/contracts/DigitalIdentity.sol\":4282:4287  users */\n      0x00\n        /* \"bc_project_starter/contracts/DigitalIdentity.sol\":4282:4293  users[user] */\n      0x00\n        /* \"bc_project_starter/contracts/DigitalIdentity.sol\":4288:4292  user */\n      dup4\n        /* \"bc_project_starter/contracts/DigitalIdentity.sol\":4282:4293  users[user] */\n      0xffffffffffffffffffffffffffffffffffffffff\n      and\n      0xffffffffffffffffffffffffffffffffffffffff\n      and\n      dup2\n      mstore\n      0x20\n      add\n      swap1\n      dup2\n      mstore\n      0x20\n      add\n      0x00\n      keccak256\n        /* \"bc_project_starter/contracts/DigitalIdentity.sol\":4282:4300  users[user].exists */\n      0x04\n      add\n      0x00\n      swap1\n      sload\n      swap1\n      0x0100\n      exp\n      swap1\n      div\n      0xff\n      and\n        /* \"bc_project_starter/contracts/DigitalIdentity.sol\":4275:4300  return users[user].exists */\n      swap1\n      pop\n        /* \"bc_project_starter/contracts/DigitalIdentity.sol\":4200:4307  function IsRegistered(address user) external view returns (bool) {... */\n      swap2\n      swap1\n      pop\n      jump\t// out\n    tag_60:\n      mload(0x40)\n      dup1\n      0xa0\n      add\n      0x40\n      mstore\n      dup1\n      0x00\n      dup2\n      mstore\n      0x20\n      add\n      0x00\n      dup2\n      mstore\n      0x20\n      add\n      0x00\n      dup2\n      mstore\n      0x20\n      add\n      0x00\n      dup2\n      mstore\n      0x20\n      add\n      iszero(iszero(0x00))\n      dup2\n      mstore\n      pop\n      swap1\n      jump\t// out\n        /* \"#utility.yul\":88:205   */\n    tag_67:\n        /* \"#utility.yul\":197:198   */\n      0x00\n        /* \"#utility.yul\":194:195   */\n      0x00\n        /* \"#utility.yul\":187:199   */\n      revert\n        /* \"#utility.yul\":334:460   */\n    tag_69:\n        /* \"#utility.yul\":371:378   */\n      0x00\n        /* \"#utility.yul\":411:453   */\n      0xffffffffffffffffffffffffffffffffffffffff\n        /* \"#utility.yul\":404:409   */\n      dup3\n        /* \"#utility.yul\":400:454   */\n      and\n        /* \"#utility.yul\":389:454   */\n      swap1\n      pop\n        /* \"#utility.yul\":334:460   */\n      swap2\n      swap1\n      pop\n      jump\t// out\n        /* \"#utility.yul\":466:562   */\n    tag_70:\n        /* \"#utility.yul\":503:510   */\n      0x00\n        /* \"#utility.yul\":532:556   */\n      tag_91\n        /* \"#utility.yul\":550:555   */\n      dup3\n        /* \"#utility.yul\":532:556   */\n      tag_69\n      jump\t// in\n    tag_91:\n        /* \"#utility.yul\":521:556   */\n      swap1\n      pop\n        /* \"#utility.yul\":466:562   */\n      swap2\n      swap1\n      pop\n      jump\t// out\n        /* \"#utility.yul\":568:690   */\n    tag_71:\n        /* \"#utility.yul\":641:665   */\n      tag_93\n        /* \"#utility.yul\":659:664   */\n      dup2\n        /* \"#utility.yul\":641:665   */\n      tag_70\n      jump\t// in\n    tag_93:\n        /* \"#utility.yul\":634:639   */\n      dup2\n        /* \"#utility.yul\":631:666   */\n      eq\n        /* \"#utility.yul\":621:684   */\n      tag_94\n      jumpi\n        /* \"#utility.yul\":680:681   */\n      0x00\n        /* \"#utility.yul\":677:678   */\n      0x00\n        /* \"#utility.yul\":670:682   */\n      revert\n        /* \"#utility.yul\":621:684   */\n    tag_94:\n        /* \"#utility.yul\":568:690   */\n      pop\n      jump\t// out\n        /* \"#utility.yul\":696:835   */\n    tag_72:\n        /* \"#utility.yul\":742:747   */\n      0x00\n        /* \"#utility.yul\":780:786   */\n      dup2\n        /* \"#utility.yul\":767:787   */\n      calldataload\n        /* \"#utility.yul\":758:787   */\n      swap1\n      pop\n        /* \"#utility.yul\":796:829   */\n      tag_96\n        /* \"#utility.yul\":823:828   */\n      dup2\n        /* \"#utility.yul\":796:829   */\n      tag_71\n      jump\t// in\n    tag_96:\n        /* \"#utility.yul\":696:835   */\n      swap3\n      swap2\n      pop\n      pop\n      jump\t// out\n        /* \"#utility.yul\":841:918   */\n    tag_73:\n        /* \"#utility.yul\":878:885   */\n      0x00\n        /* \"#utility.yul\":907:912   */\n      dup2\n        /* \"#utility.yul\":896:912   */\n      swap1\n      pop\n        /* \"#utility.yul\":841:918   */\n      swap2\n      swap1\n      pop\n      jump\t// out\n        /* \"#utility.yul\":924:1046   */\n    tag_74:\n        /* \"#utility.yul\":997:1021   */\n      tag_99\n        /* \"#utility.yul\":1015:1020   */\n      dup2\n        /* \"#utility.yul\":997:1021   */\n      tag_73\n      jump\t// in\n    tag_99:\n        /* \"#utility.yul\":990:995   */\n      dup2\n        /* \"#utility.yul\":987:1022   */\n      eq\n        /* \"#utility.yul\":977:1040   */\n      tag_100\n      jumpi\n        /* \"#utility.yul\":1036:1037   */\n      0x00\n        /* \"#utility.yul\":1033:1034   */\n      0x00\n        /* \"#utility.yul\":1026:1038   */\n      revert\n        /* \"#utility.yul\":977:1040   */\n    tag_100:\n        /* \"#utility.yul\":924:1046   */\n      pop\n      jump\t// out\n        /* \"#utility.yul\":1052:1191   */\n    tag_75:\n        /* \"#utility.yul\":1098:1103   */\n      0x00\n        /* \"#utility.yul\":1136:1142   */\n      dup2\n        /* \"#utility.yul\":1123:1143   */\n      calldataload\n        /* \"#utility.yul\":1114:1143   */\n      swap1\n      pop\n        /* \"#utility.yul\":1152:1185   */\n      tag_102\n        /* \"#utility.yul\":1179:1184   */\n      dup2\n        /* \"#utility.yul\":1152:1185   */\n      tag_74\n      jump\t// in\n    tag_102:\n        /* \"#utility.yul\":1052:1191   */\n      swap3\n      swap2\n      pop\n      pop\n      jump\t// out\n        /* \"#utility.yul\":1197:1671   */\n    tag_13:\n        /* \"#utility.yul\":1265:1271   */\n      0x00\n        /* \"#utility.yul\":1273:1279   */\n      0x00\n        /* \"#utility.yul\":1322:1324   */\n      0x40\n        /* \"#utility.yul\":1310:1319   */\n      dup4\n        /* \"#utility.yul\":1301:1308   */\n      dup6\n        /* \"#utility.yul\":1297:1320   */\n      sub\n        /* \"#utility.yul\":1293:1325   */\n      slt\n        /* \"#utility.yul\":1290:1409   */\n      iszero\n      tag_104\n      jumpi\n        /* \"#utility.yul\":1328:1407   */\n      tag_105\n      tag_67\n      jump\t// in\n    tag_105:\n        /* \"#utility.yul\":1290:1409   */\n    tag_104:\n        /* \"#utility.yul\":1448:1449   */\n      0x00\n        /* \"#utility.yul\":1473:1526   */\n      tag_106\n        /* \"#utility.yul\":1518:1525   */\n      dup6\n        /* \"#utility.yul\":1509:1515   */\n      dup3\n        /* \"#utility.yul\":1498:1507   */\n      dup7\n        /* \"#utility.yul\":1494:1516   */\n      add\n        /* \"#utility.yul\":1473:1526   */\n      tag_72\n      jump\t// in\n    tag_106:\n        /* \"#utility.yul\":1463:1526   */\n      swap3\n      pop\n        /* \"#utility.yul\":1419:1536   */\n      pop\n        /* \"#utility.yul\":1575:1577   */\n      0x20\n        /* \"#utility.yul\":1601:1654   */\n      tag_107\n        /* \"#utility.yul\":1646:1653   */\n      dup6\n        /* \"#utility.yul\":1637:1643   */\n      dup3\n        /* \"#utility.yul\":1626:1635   */\n      dup7\n        /* \"#utility.yul\":1622:1644   */\n      add\n        /* \"#utility.yul\":1601:1654   */\n      tag_75\n      jump\t// in\n    tag_107:\n        /* \"#utility.yul\":1591:1654   */\n      swap2\n      pop\n        /* \"#utility.yul\":1546:1664   */\n      pop\n        /* \"#utility.yul\":1197:1671   */\n      swap3\n      pop\n      swap3\n      swap1\n      pop\n      jump\t// out\n        /* \"#utility.yul\":1677:1795   */\n    tag_76:\n        /* \"#utility.yul\":1764:1788   */\n      tag_109\n        /* \"#utility.yul\":1782:1787   */\n      dup2\n        /* \"#utility.yul\":1764:1788   */\n      tag_73\n      jump\t// in\n    tag_109:\n        /* \"#utility.yul\":1759:1762   */\n      dup3\n        /* \"#utility.yul\":1752:1789   */\n      mstore\n        /* \"#utility.yul\":1677:1795   */\n      pop\n      pop\n      jump\t// out\n        /* \"#utility.yul\":1801:2023   */\n    tag_16:\n        /* \"#utility.yul\":1894:1898   */\n      0x00\n        /* \"#utility.yul\":1932:1934   */\n      0x20\n        /* \"#utility.yul\":1921:1930   */\n      dup3\n        /* \"#utility.yul\":1917:1935   */\n      add\n        /* \"#utility.yul\":1909:1935   */\n      swap1\n      pop\n        /* \"#utility.yul\":1945:2016   */\n      tag_111\n        /* \"#utility.yul\":2013:2014   */\n      0x00\n        /* \"#utility.yul\":2002:2011   */\n      dup4\n        /* \"#utility.yul\":1998:2015   */\n      add\n        /* \"#utility.yul\":1989:1995   */\n      dup5\n        /* \"#utility.yul\":1945:2016   */\n      tag_76\n      jump\t// in\n    tag_111:\n        /* \"#utility.yul\":1801:2023   */\n      swap3\n      swap2\n      pop\n      pop\n      jump\t// out\n        /* \"#utility.yul\":2029:2503   */\n    tag_19:\n        /* \"#utility.yul\":2097:2103   */\n      0x00\n        /* \"#utility.yul\":2105:2111   */\n      0x00\n        /* \"#utility.yul\":2154:2156   */\n      0x40\n        /* \"#utility.yul\":2142:2151   */\n      dup4\n        /* \"#utility.yul\":2133:2140   */\n      dup6\n        /* \"#utility.yul\":2129:2152   */\n      sub\n        /* \"#utility.yul\":2125:2157   */\n      slt\n        /* \"#utility.yul\":2122:2241   */\n      iszero\n      tag_113\n      jumpi\n        /* \"#utility.yul\":2160:2239   */\n      tag_114\n      tag_67\n      jump\t// in\n    tag_114:\n        /* \"#utility.yul\":2122:2241   */\n    tag_113:\n        /* \"#utility.yul\":2280:2281   */\n      0x00\n        /* \"#utility.yul\":2305:2358   */\n      tag_115\n        /* \"#utility.yul\":2350:2357   */\n      dup6\n        /* \"#utility.yul\":2341:2347   */\n      dup3\n        /* \"#utility.yul\":2330:2339   */\n      dup7\n        /* \"#utility.yul\":2326:2348   */\n      add\n        /* \"#utility.yul\":2305:2358   */\n      tag_75\n      jump\t// in\n    tag_115:\n        /* \"#utility.yul\":2295:2358   */\n      swap3\n      pop\n        /* \"#utility.yul\":2251:2368   */\n      pop\n        /* \"#utility.yul\":2407:2409   */\n      0x20\n        /* \"#utility.yul\":2433:2486   */\n      tag_116\n        /* \"#utility.yul\":2478:2485   */\n      dup6\n        /* \"#utility.yul\":2469:2475   */\n      dup3\n        /* \"#utility.yul\":2458:2467   */\n      dup7\n        /* \"#utility.yul\":2454:2476   */\n      add\n        /* \"#utility.yul\":2433:2486   */\n      tag_75\n      jump\t// in\n    tag_116:\n        /* \"#utility.yul\":2423:2486   */\n      swap2\n      pop\n        /* \"#utility.yul\":2378:2496   */\n      pop\n        /* \"#utility.yul\":2029:2503   */\n      swap3\n      pop\n      swap3\n      swap1\n      pop\n      jump\t// out\n        /* \"#utility.yul\":2509:3128   */\n    tag_23:\n        /* \"#utility.yul\":2586:2592   */\n      0x00\n        /* \"#utility.yul\":2594:2600   */\n      0x00\n        /* \"#utility.yul\":2602:2608   */\n      0x00\n        /* \"#utility.yul\":2651:2653   */\n      0x60\n        /* \"#utility.yul\":2639:2648   */\n      dup5\n        /* \"#utility.yul\":2630:2637   */\n      dup7\n        /* \"#utility.yul\":2626:2649   */\n      sub\n        /* \"#utility.yul\":2622:2654   */\n      slt\n        /* \"#utility.yul\":2619:2738   */\n      iszero\n      tag_118\n      jumpi\n        /* \"#utility.yul\":2657:2736   */\n      tag_119\n      tag_67\n      jump\t// in\n    tag_119:\n        /* \"#utility.yul\":2619:2738   */\n    tag_118:\n        /* \"#utility.yul\":2777:2778   */\n      0x00\n        /* \"#utility.yul\":2802:2855   */\n      tag_120\n        /* \"#utility.yul\":2847:2854   */\n      dup7\n        /* \"#utility.yul\":2838:2844   */\n      dup3\n        /* \"#utility.yul\":2827:2836   */\n      dup8\n        /* \"#utility.yul\":2823:2845   */\n      add\n        /* \"#utility.yul\":2802:2855   */\n      tag_75\n      jump\t// in\n    tag_120:\n        /* \"#utility.yul\":2792:2855   */\n      swap4\n      pop\n        /* \"#utility.yul\":2748:2865   */\n      pop\n        /* \"#utility.yul\":2904:2906   */\n      0x20\n        /* \"#utility.yul\":2930:2983   */\n      tag_121\n        /* \"#utility.yul\":2975:2982   */\n      dup7\n        /* \"#utility.yul\":2966:2972   */\n      dup3\n        /* \"#utility.yul\":2955:2964   */\n      dup8\n        /* \"#utility.yul\":2951:2973   */\n      add\n        /* \"#utility.yul\":2930:2983   */\n      tag_75\n      jump\t// in\n    tag_121:\n        /* \"#utility.yul\":2920:2983   */\n      swap3\n      pop\n        /* \"#utility.yul\":2875:2993   */\n      pop\n        /* \"#utility.yul\":3032:3034   */\n      0x40\n        /* \"#utility.yul\":3058:3111   */\n      tag_122\n        /* \"#utility.yul\":3103:3110   */\n      dup7\n        /* \"#utility.yul\":3094:3100   */\n      dup3\n        /* \"#utility.yul\":3083:3092   */\n      dup8\n        /* \"#utility.yul\":3079:3101   */\n      add\n        /* \"#utility.yul\":3058:3111   */\n      tag_75\n      jump\t// in\n    tag_122:\n        /* \"#utility.yul\":3048:3111   */\n      swap2\n      pop\n        /* \"#utility.yul\":3003:3121   */\n      pop\n        /* \"#utility.yul\":2509:3128   */\n      swap3\n      pop\n      swap3\n      pop\n      swap3\n      jump\t// out\n        /* \"#utility.yul\":3134:3224   */\n    tag_77:\n        /* \"#utility.yul\":3168:3175   */\n      0x00\n        /* \"#utility.yul\":3211:3216   */\n      dup2\n        /* \"#utility.yul\":3204:3217   */\n      iszero\n        /* \"#utility.yul\":3197:3218   */\n      iszero\n        /* \"#utility.yul\":3186:3218   */\n      swap1\n      pop\n        /* \"#utility.yul\":3134:3224   */\n      swap2\n      swap1\n      pop\n      jump\t// out\n        /* \"#utility.yul\":3230:3339   */\n    tag_78:\n        /* \"#utility.yul\":3311:3332   */\n      tag_125\n        /* \"#utility.yul\":3326:3331   */\n      dup2\n        /* \"#utility.yul\":3311:3332   */\n      tag_77\n      jump\t// in\n    tag_125:\n        /* \"#utility.yul\":3306:3309   */\n      dup3\n        /* \"#utility.yul\":3299:3333   */\n      mstore\n        /* \"#utility.yul\":3230:3339   */\n      pop\n      pop\n      jump\t// out\n        /* \"#utility.yul\":3345:3555   */\n    tag_29:\n        /* \"#utility.yul\":3432:3436   */\n      0x00\n        /* \"#utility.yul\":3470:3472   */\n      0x20\n        /* \"#utility.yul\":3459:3468   */\n      dup3\n        /* \"#utility.yul\":3455:3473   */\n      add\n        /* \"#utility.yul\":3447:3473   */\n      swap1\n      pop\n        /* \"#utility.yul\":3483:3548   */\n      tag_127\n        /* \"#utility.yul\":3545:3546   */\n      0x00\n        /* \"#utility.yul\":3534:3543   */\n      dup4\n        /* \"#utility.yul\":3530:3547   */\n      add\n        /* \"#utility.yul\":3521:3527   */\n      dup5\n        /* \"#utility.yul\":3483:3548   */\n      tag_78\n      jump\t// in\n    tag_127:\n        /* \"#utility.yul\":3345:3555   */\n      swap3\n      swap2\n      pop\n      pop\n      jump\t// out\n        /* \"#utility.yul\":3561:3890   */\n    tag_32:\n        /* \"#utility.yul\":3620:3626   */\n      0x00\n        /* \"#utility.yul\":3669:3671   */\n      0x20\n        /* \"#utility.yul\":3657:3666   */\n      dup3\n        /* \"#utility.yul\":3648:3655   */\n      dup5\n        /* \"#utility.yul\":3644:3667   */\n      sub\n        /* \"#utility.yul\":3640:3672   */\n      slt\n        /* \"#utility.yul\":3637:3756   */\n      iszero\n      tag_129\n      jumpi\n        /* \"#utility.yul\":3675:3754   */\n      tag_130\n      tag_67\n      jump\t// in\n    tag_130:\n        /* \"#utility.yul\":3637:3756   */\n    tag_129:\n        /* \"#utility.yul\":3795:3796   */\n      0x00\n        /* \"#utility.yul\":3820:3873   */\n      tag_131\n        /* \"#utility.yul\":3865:3872   */\n      dup5\n        /* \"#utility.yul\":3856:3862   */\n      dup3\n        /* \"#utility.yul\":3845:3854   */\n      dup6\n        /* \"#utility.yul\":3841:3863   */\n      add\n        /* \"#utility.yul\":3820:3873   */\n      tag_72\n      jump\t// in\n    tag_131:\n        /* \"#utility.yul\":3810:3873   */\n      swap2\n      pop\n        /* \"#utility.yul\":3766:3883   */\n      pop\n        /* \"#utility.yul\":3561:3890   */\n      swap3\n      swap2\n      pop\n      pop\n      jump\t// out\n        /* \"#utility.yul\":3896:4004   */\n    tag_79:\n        /* \"#utility.yul\":3973:3997   */\n      tag_133\n        /* \"#utility.yul\":3991:3996   */\n      dup2\n        /* \"#utility.yul\":3973:3997   */\n      tag_73\n      jump\t// in\n    tag_133:\n        /* \"#utility.yul\":3968:3971   */\n      dup3\n        /* \"#utility.yul\":3961:3998   */\n      mstore\n        /* \"#utility.yul\":3896:4004   */\n      pop\n      pop\n      jump\t// out\n        /* \"#utility.yul\":4010:4087   */\n    tag_80:\n        /* \"#utility.yul\":4047:4054   */\n      0x00\n        /* \"#utility.yul\":4076:4081   */\n      dup2\n        /* \"#utility.yul\":4065:4081   */\n      swap1\n      pop\n        /* \"#utility.yul\":4010:4087   */\n      swap2\n      swap1\n      pop\n      jump\t// out\n        /* \"#utility.yul\":4093:4201   */\n    tag_81:\n        /* \"#utility.yul\":4170:4194   */\n      tag_136\n        /* \"#utility.yul\":4188:4193   */\n      dup2\n        /* \"#utility.yul\":4170:4194   */\n      tag_80\n      jump\t// in\n    tag_136:\n        /* \"#utility.yul\":4165:4168   */\n      dup3\n        /* \"#utility.yul\":4158:4195   */\n      mstore\n        /* \"#utility.yul\":4093:4201   */\n      pop\n      pop\n      jump\t// out\n        /* \"#utility.yul\":4207:4306   */\n    tag_82:\n        /* \"#utility.yul\":4278:4299   */\n      tag_138\n        /* \"#utility.yul\":4293:4298   */\n      dup2\n        /* \"#utility.yul\":4278:4299   */\n      tag_77\n      jump\t// in\n    tag_138:\n        /* \"#utility.yul\":4273:4276   */\n      dup3\n        /* \"#utility.yul\":4266:4300   */\n      mstore\n        /* \"#utility.yul\":4207:4306   */\n      pop\n      pop\n      jump\t// out\n        /* \"#utility.yul\":4378:5417   */\n    tag_83:\n        /* \"#utility.yul\":4515:4519   */\n      0xa0\n        /* \"#utility.yul\":4510:4513   */\n      dup3\n        /* \"#utility.yul\":4506:4520   */\n      add\n        /* \"#utility.yul\":4604:4608   */\n      0x00\n        /* \"#utility.yul\":4597:4602   */\n      dup3\n        /* \"#utility.yul\":4593:4609   */\n      add\n        /* \"#utility.yul\":4587:4610   */\n      mload\n        /* \"#utility.yul\":4623:4686   */\n      tag_140\n        /* \"#utility.yul\":4680:4684   */\n      0x00\n        /* \"#utility.yul\":4675:4678   */\n      dup6\n        /* \"#utility.yul\":4671:4685   */\n      add\n        /* \"#utility.yul\":4657:4669   */\n      dup3\n        /* \"#utility.yul\":4623:4686   */\n      tag_79\n      jump\t// in\n    tag_140:\n        /* \"#utility.yul\":4530:4696   */\n      pop\n        /* \"#utility.yul\":4783:4787   */\n      0x20\n        /* \"#utility.yul\":4776:4781   */\n      dup3\n        /* \"#utility.yul\":4772:4788   */\n      add\n        /* \"#utility.yul\":4766:4789   */\n      mload\n        /* \"#utility.yul\":4802:4865   */\n      tag_141\n        /* \"#utility.yul\":4859:4863   */\n      0x20\n        /* \"#utility.yul\":4854:4857   */\n      dup6\n        /* \"#utility.yul\":4850:4864   */\n      add\n        /* \"#utility.yul\":4836:4848   */\n      dup3\n        /* \"#utility.yul\":4802:4865   */\n      tag_79\n      jump\t// in\n    tag_141:\n        /* \"#utility.yul\":4706:4875   */\n      pop\n        /* \"#utility.yul\":4966:4970   */\n      0x40\n        /* \"#utility.yul\":4959:4964   */\n      dup3\n        /* \"#utility.yul\":4955:4971   */\n      add\n        /* \"#utility.yul\":4949:4972   */\n      mload\n        /* \"#utility.yul\":4985:5048   */\n      tag_142\n        /* \"#utility.yul\":5042:5046   */\n      0x40\n        /* \"#utility.yul\":5037:5040   */\n      dup6\n        /* \"#utility.yul\":5033:5047   */\n      add\n        /* \"#utility.yul\":5019:5031   */\n      dup3\n        /* \"#utility.yul\":4985:5048   */\n      tag_79\n      jump\t// in\n    tag_142:\n        /* \"#utility.yul\":4885:5058   */\n      pop\n        /* \"#utility.yul\":5148:5152   */\n      0x60\n        /* \"#utility.yul\":5141:5146   */\n      dup3\n        /* \"#utility.yul\":5137:5153   */\n      add\n        /* \"#utility.yul\":5131:5154   */\n      mload\n        /* \"#utility.yul\":5167:5230   */\n      tag_143\n        /* \"#utility.yul\":5224:5228   */\n      0x60\n        /* \"#utility.yul\":5219:5222   */\n      dup6\n        /* \"#utility.yul\":5215:5229   */\n      add\n        /* \"#utility.yul\":5201:5213   */\n      dup3\n        /* \"#utility.yul\":5167:5230   */\n      tag_81\n      jump\t// in\n    tag_143:\n        /* \"#utility.yul\":5068:5240   */\n      pop\n        /* \"#utility.yul\":5324:5328   */\n      0x80\n        /* \"#utility.yul\":5317:5322   */\n      dup3\n        /* \"#utility.yul\":5313:5329   */\n      add\n        /* \"#utility.yul\":5307:5330   */\n      mload\n        /* \"#utility.yul\":5343:5400   */\n      tag_144\n        /* \"#utility.yul\":5394:5398   */\n      0x80\n        /* \"#utility.yul\":5389:5392   */\n      dup6\n        /* \"#utility.yul\":5385:5399   */\n      add\n        /* \"#utility.yul\":5371:5383   */\n      dup3\n        /* \"#utility.yul\":5343:5400   */\n      tag_82\n      jump\t// in\n    tag_144:\n        /* \"#utility.yul\":5250:5410   */\n      pop\n        /* \"#utility.yul\":4484:5417   */\n      pop\n        /* \"#utility.yul\":4378:5417   */\n      pop\n      pop\n      jump\t// out\n        /* \"#utility.yul\":5423:5726   */\n    tag_35:\n        /* \"#utility.yul\":5556:5560   */\n      0x00\n        /* \"#utility.yul\":5594:5597   */\n      0xa0\n        /* \"#utility.yul\":5583:5592   */\n      dup3\n        /* \"#utility.yul\":5579:5598   */\n      add\n        /* \"#utility.yul\":5571:5598   */\n      swap1\n      pop\n        /* \"#utility.yul\":5608:5719   */\n      tag_146\n        /* \"#utility.yul\":5716:5717   */\n      0x00\n        /* \"#utility.yul\":5705:5714   */\n      dup4\n        /* \"#utility.yul\":5701:5718   */\n      add\n        /* \"#utility.yul\":5692:5698   */\n      dup5\n        /* \"#utility.yul\":5608:5719   */\n      tag_83\n      jump\t// in\n    tag_146:\n        /* \"#utility.yul\":5423:5726   */\n      swap3\n      swap2\n      pop\n      pop\n      jump\t// out\n        /* \"#utility.yul\":5732:5850   */\n    tag_84:\n        /* \"#utility.yul\":5819:5843   */\n      tag_148\n        /* \"#utility.yul\":5837:5842   */\n      dup2\n        /* \"#utility.yul\":5819:5843   */\n      tag_80\n      jump\t// in\n    tag_148:\n        /* \"#utility.yul\":5814:5817   */\n      dup3\n        /* \"#utility.yul\":5807:5844   */\n      mstore\n        /* \"#utility.yul\":5732:5850   */\n      pop\n      pop\n      jump\t// out\n        /* \"#utility.yul\":5856:6188   */\n    tag_51:\n        /* \"#utility.yul\":5977:5981   */\n      0x00\n        /* \"#utility.yul\":6015:6017   */\n      0x40\n        /* \"#utility.yul\":6004:6013   */\n      dup3\n        /* \"#utility.yul\":6000:6018   */\n      add\n        /* \"#utility.yul\":5992:6018   */\n      swap1\n      pop\n        /* \"#utility.yul\":6028:6099   */\n      tag_150\n        /* \"#utility.yul\":6096:6097   */\n      0x00\n        /* \"#utility.yul\":6085:6094   */\n      dup4\n        /* \"#utility.yul\":6081:6098   */\n      add\n        /* \"#utility.yul\":6072:6078   */\n      dup6\n        /* \"#utility.yul\":6028:6099   */\n      tag_76\n      jump\t// in\n    tag_150:\n        /* \"#utility.yul\":6109:6181   */\n      tag_151\n        /* \"#utility.yul\":6177:6179   */\n      0x20\n        /* \"#utility.yul\":6166:6175   */\n      dup4\n        /* \"#utility.yul\":6162:6180   */\n      add\n        /* \"#utility.yul\":6153:6159   */\n      dup5\n        /* \"#utility.yul\":6109:6181   */\n      tag_84\n      jump\t// in\n    tag_151:\n        /* \"#utility.yul\":5856:6188   */\n      swap4\n      swap3\n      pop\n      pop\n      pop\n      jump\t// out\n\n    auxdata: 0xa2646970667358221220494f9b6d3b497265cc599442dc9b0882ab0975ca4cb34384ed8b7c62f3c1c26d64736f6c634300081e0033\n}\n",
				"bytecode": {
					"linkReferences": {},
					"object": "6080604052348015600e575f5ffd5b50610bf38061001c5f395ff3fe608060405234801561000f575f5ffd5b506004361061007b575f3560e01c806318aa2e4a1161005957806318aa2e4a146100e75780632c9387f6146101175780634ec507b314610147578063c224122d146101775761007b565b80630e4edc6d1461007f57806311f3ac84146100af57806315a830d2146100cb575b5f5ffd5b61009960048036038101906100949190610980565b6101a7565b6040516100a691906109cd565b60405180910390f35b6100c960048036038101906100c491906109e6565b610291565b005b6100e560048036038101906100e09190610a24565b61044e565b005b61010160048036038101906100fc9190610980565b610628565b60405161010e9190610a8e565b60405180910390f35b610131600480360381019061012c9190610aa7565b61068d565b60405161013e9190610b6e565b60405180910390f35b610161600480360381019061015c9190610aa7565b6107a6565b60405161016e91906109cd565b60405180910390f35b610191600480360381019061018c9190610aa7565b61086f565b60405161019e9190610a8e565b60405180910390f35b5f60015f8473ffffffffffffffffffffffffffffffffffffffff1673ffffffffffffffffffffffffffffffffffffffff1681526020019081526020015f205f8381526020019081526020015f206002015f9054906101000a900460ff1661023a576040517fb7199d4c00000000000000000000000000000000000000000000000000000000815260040160405180910390fd5b60015f8473ffffffffffffffffffffffffffffffffffffffff1673ffffffffffffffffffffffffffffffffffffffff1681526020019081526020015f205f8381526020019081526020015f205f0154905092915050565b5f5f3373ffffffffffffffffffffffffffffffffffffffff1673ffffffffffffffffffffffffffffffffffffffff1681526020019081526020015f206004015f9054906101000a900460ff16610313576040517f2163950f00000000000000000000000000000000000000000000000000000000815260040160405180910390fd5b5f5f1b82148061032457505f5f1b81145b1561035b576040517f613970e000000000000000000000000000000000000000000000000000000000815260040160405180910390fd5b60405180606001604052808281526020014281526020016001151581525060015f3373ffffffffffffffffffffffffffffffffffffffff1673ffffffffffffffffffffffffffffffffffffffff1681526020019081526020015f205f8481526020019081526020015f205f820151815f0155602082015181600101556040820151816002015f6101000a81548160ff021916908315150217905550905050813373ffffffffffffffffffffffffffffffffffffffff167f0fb5f20f00cf5cd7248db4b40ceac29f091da1108a255d3955537db9038b443b8342604051610442929190610b96565b60405180910390a35050565b5f5f3373ffffffffffffffffffffffffffffffffffffffff1673ffffffffffffffffffffffffffffffffffffffff1681526020019081526020015f206004015f9054906101000a900460ff16156104d1576040517f3a81d6fc00000000000000000000000000000000000000000000000000000000815260040160405180910390fd5b5f5f1b8314806104e257505f5f1b82145b806104ee57505f5f1b81145b15610525576040517f613970e000000000000000000000000000000000000000000000000000000000815260040160405180910390fd5b6040518060a00160405280848152602001838152602001828152602001428152602001600115158152505f5f3373ffffffffffffffffffffffffffffffffffffffff1673ffffffffffffffffffffffffffffffffffffffff1681526020019081526020015f205f820151815f01556020820151816001015560408201518160020155606082015181600301556080820151816004015f6101000a81548160ff0219169083151502179055509050503373ffffffffffffffffffffffffffffffffffffffff167fd1728799782e5ec0cad3e312c9701f68dcc48de6a9d86a1e47a80abfe63a9cb0844260405161061b929190610b96565b60405180910390a2505050565b5f60015f8473ffffffffffffffffffffffffffffffffffffffff1673ffffffffffffffffffffffffffffffffffffffff1681526020019081526020015f205f8381526020019081526020015f206002015f9054906101000a900460ff16905092915050565b6106956108c3565b5f5f8373ffffffffffffffffffffffffffffffffffffffff1673ffffffffffffffffffffffffffffffffffffffff1681526020019081526020015f206004015f9054906101000a900460ff16610717576040517f2163950f00000000000000000000000000000000000000000000000000000000815260040160405180910390fd5b5f5f8373ffffffffffffffffffffffffffffffffffffffff1673ffffffffffffffffffffffffffffffffffffffff1681526020019081526020015f206040518060a00160405290815f8201548152602001600182015481526020016002820154815260200160038201548152602001600482015f9054906101000a900460ff1615151515815250509050919050565b5f5f5f8373ffffffffffffffffffffffffffffffffffffffff1673ffffffffffffffffffffffffffffffffffffffff1681526020019081526020015f206004015f9054906101000a900460ff16610829576040517f2163950f00000000000000000000000000000000000000000000000000000000815260040160405180910390fd5b5f5f8373ffffffffffffffffffffffffffffffffffffffff1673ffffffffffffffffffffffffffffffffffffffff1681526020019081526020015f205f01549050919050565b5f5f5f8373ffffffffffffffffffffffffffffffffffffffff1673ffffffffffffffffffffffffffffffffffffffff1681526020019081526020015f206004015f9054906101000a900460ff169050919050565b6040518060a001604052805f81526020015f81526020015f81526020015f81526020015f151581525090565b5f5ffd5b5f73ffffffffffffffffffffffffffffffffffffffff82169050919050565b5f61091c826108f3565b9050919050565b61092c81610912565b8114610936575f5ffd5b50565b5f8135905061094781610923565b92915050565b5f819050919050565b61095f8161094d565b8114610969575f5ffd5b50565b5f8135905061097a81610956565b92915050565b5f5f60408385031215610996576109956108ef565b5b5f6109a385828601610939565b92505060206109b48582860161096c565b9150509250929050565b6109c78161094d565b82525050565b5f6020820190506109e05f8301846109be565b92915050565b5f5f604083850312156109fc576109fb6108ef565b5b5f610a098582860161096c565b9250506020610a1a8582860161096c565b9150509250929050565b5f5f5f60608486031215610a3b57610a3a6108ef565b5b5f610a488682870161096c565b9350506020610a598682870161096c565b9250506040610a6a8682870161096c565b9150509250925092565b5f8115159050919050565b610a8881610a74565b82525050565b5f602082019050610aa15f830184610a7f565b92915050565b5f60208284031215610abc57610abb6108ef565b5b5f610ac984828501610939565b91505092915050565b610adb8161094d565b82525050565b5f819050919050565b610af381610ae1565b82525050565b610b0281610a74565b82525050565b60a082015f820151610b1c5f850182610ad2565b506020820151610b2f6020850182610ad2565b506040820151610b426040850182610ad2565b506060820151610b556060850182610aea565b506080820151610b686080850182610af9565b50505050565b5f60a082019050610b815f830184610b08565b92915050565b610b9081610ae1565b82525050565b5f604082019050610ba95f8301856109be565b610bb66020830184610b87565b939250505056fea2646970667358221220494f9b6d3b497265cc599442dc9b0882ab0975ca4cb34384ed8b7c62f3c1c26d64736f6c634300081e0033",
					"opcodes": "PUSH1 0x80 PUSH1 0x40 MSTORE CALLVALUE DUP1 ISZERO PUSH1 0xE JUMPI PUSH0 PUSH0 REVERT JUMPDEST POP PUSH2 0xBF3 DUP1 PUSH2 0x1C PUSH0 CODECOPY PUSH0 RETURN INVALID PUSH1 0x80 PUSH1 0x40 MSTORE CALLVALUE DUP1 ISZERO PUSH2 0xF JUMPI PUSH0 PUSH0 REVERT JUMPDEST POP PUSH1 0x4 CALLDATASIZE LT PUSH2 0x7B JUMPI PUSH0 CALLDATALOAD PUSH1 0xE0 SHR DUP1 PUSH4 0x18AA2E4A GT PUSH2 0x59 JUMPI DUP1 PUSH4 0x18AA2E4A EQ PUSH2 0xE7 JUMPI DUP1 PUSH4 0x2C9387F6 EQ PUSH2 0x117 JUMPI DUP1 PUSH4 0x4EC507B3 EQ PUSH2 0x147 JUMPI DUP1 PUSH4 0xC224122D EQ PUSH2 0x177 JUMPI PUSH2 0x7B JUMP JUMPDEST DUP1 PUSH4 0xE4EDC6D EQ PUSH2 0x7F JUMPI DUP1 PUSH4 0x11F3AC84 EQ PUSH2 0xAF JUMPI DUP1 PUSH4 0x15A830D2 EQ PUSH2 0xCB JUMPI JUMPDEST PUSH0 PUSH0 REVERT JUMPDEST PUSH2 0x99 PUSH1 0x4 DUP1 CALLDATASIZE SUB DUP2 ADD SWAP1 PUSH2 0x94 SWAP2 SWAP1 PUSH2 0x980 JUMP JUMPDEST PUSH2 0x1A7 JUMP JUMPDEST PUSH1 0x40 MLOAD PUSH2 0xA6 SWAP2 SWAP1 PUSH2 0x9CD JUMP JUMPDEST PUSH1 0x40 MLOAD DUP1 SWAP2 SUB SWAP1 RETURN JUMPDEST PUSH2 0xC9 PUSH1 0x4 DUP1 CALLDATASIZE SUB DUP2 ADD SWAP1 PUSH2 0xC4 SWAP2 SWAP1 PUSH2 0x9E6 JUMP JUMPDEST PUSH2 0x291 JUMP JUMPDEST STOP JUMPDEST PUSH2 0xE5 PUSH1 0x4 DUP1 CALLDATASIZE SUB DUP2 ADD SWAP1 PUSH2 0xE0 SWAP2 SWAP1 PUSH2 0xA24 JUMP JUMPDEST PUSH2 0x44E JUMP JUMPDEST STOP JUMPDEST PUSH2 0x101 PUSH1 0x4 DUP1 CALLDATASIZE SUB DUP2 ADD SWAP1 PUSH2 0xFC SWAP2 SWAP1 PUSH2 0x980 JUMP JUMPDEST PUSH2 0x628 JUMP JUMPDEST PUSH1 0x40 MLOAD PUSH2 0x10E SWAP2 SWAP1 PUSH2 0xA8E JUMP JUMPDEST PUSH1 0x40 MLOAD DUP1 SWAP2 SUB SWAP1 RETURN JUMPDEST PUSH2 0x131 PUSH1 0x4 DUP1 CALLDATASIZE SUB DUP2 ADD SWAP1 PUSH2 0x12C SWAP2 SWAP1 PUSH2 0xAA7 JUMP JUMPDEST PUSH2 0x68D JUMP JUMPDEST PUSH1 0x40 MLOAD PUSH2 0x13E SWAP2 SWAP1 PUSH2 0xB6E JUMP JUMPDEST PUSH1 0x40 MLOAD DUP1 SWAP2 SUB SWAP1 RETURN JUMPDEST PUSH2 0x161 PUSH1 0x4 DUP1 CALLDATASIZE SUB DUP2 ADD SWAP1 PUSH2 0x15C SWAP2 SWAP1 PUSH2 0xAA7 JUMP JUMPDEST PUSH2 0x7A6 JUMP JUMPDEST PUSH1 0x40 MLOAD PUSH2 0x16E SWAP2 SWAP1 PUSH2 0x9CD JUMP JUMPDEST PUSH1 0x40 MLOAD DUP1 SWAP2 SUB SWAP1 RETURN JUMPDEST PUSH2 0x191 PUSH1 0x4 DUP1 CALLDATASIZE SUB DUP2 ADD SWAP1 PUSH2 0x18C SWAP2 SWAP1 PUSH2 0xAA7 JUMP JUMPDEST PUSH2 0x86F JUMP JUMPDEST PUSH1 0x40 MLOAD PUSH2 0x19E SWAP2 SWAP1 PUSH2 0xA8E JUMP JUMPDEST PUSH1 0x40 MLOAD DUP1 SWAP2 SUB SWAP1 RETURN JUMPDEST PUSH0 PUSH1 0x1 PUSH0 DUP5 PUSH20 0xFFFFFFFFFFFFFFFFFFFFFFFFFFFFFFFFFFFFFFFF AND PUSH20 0xFFFFFFFFFFFFFFFFFFFFFFFFFFFFFFFFFFFFFFFF AND DUP2 MSTORE PUSH1 0x20 ADD SWAP1 DUP2 MSTORE PUSH1 0x20 ADD PUSH0 KECCAK256 PUSH0 DUP4 DUP2 MSTORE PUSH1 0x20 ADD SWAP1 DUP2 MSTORE PUSH1 0x20 ADD PUSH0 KECCAK256 PUSH1 0x2 ADD PUSH0 SWAP1 SLOAD SWAP1 PUSH2 0x100 EXP SWAP1 DIV PUSH1 0xFF AND PUSH2 0x23A JUMPI PUSH1 0x40 MLOAD PUSH32 0xB7199D4C00000000000000000000000000000000000000000000000000000000 DUP2 MSTORE PUSH1 0x4 ADD PUSH1 0x40 MLOAD DUP1 SWAP2 SUB SWAP1 REVERT JUMPDEST PUSH1 0x1 PUSH0 DUP5 PUSH20 0xFFFFFFFFFFFFFFFFFFFFFFFFFFFFFFFFFFFFFFFF AND PUSH20 0xFFFFFFFFFFFFFFFFFFFFFFFFFFFFFFFFFFFFFFFF AND DUP2 MSTORE PUSH1 0x20 ADD SWAP1 DUP2 MSTORE PUSH1 0x20 ADD PUSH0 KECCAK256 PUSH0 DUP4 DUP2 MSTORE PUSH1 0x20 ADD SWAP1 DUP2 MSTORE PUSH1 0x20 ADD PUSH0 KECCAK256 PUSH0 ADD SLOAD SWAP1 POP SWAP3 SWAP2 POP POP JUMP JUMPDEST PUSH0 PUSH0 CALLER PUSH20 0xFFFFFFFFFFFFFFFFFFFFFFFFFFFFFFFFFFFFFFFF AND PUSH20 0xFFFFFFFFFFFFFFFFFFFFFFFFFFFFFFFFFFFFFFFF AND DUP2 MSTORE PUSH1 0x20 ADD SWAP1 DUP2 MSTORE PUSH1 0x20 ADD PUSH0 KECCAK256 PUSH1 0x4 ADD PUSH0 SWAP1 SLOAD SWAP1 PUSH2 0x100 EXP SWAP1 DIV PUSH1 0xFF AND PUSH2 0x313 JUMPI PUSH1 0x40 MLOAD PUSH32 0x2163950F00000000000000000000000000000000000000000000000000000000 DUP2 MSTORE PUSH1 0x4 ADD PUSH1 0x40 MLOAD DUP1 SWAP2 SUB SWAP1 REVERT JUMPDEST PUSH0 PUSH0 SHL DUP3 EQ DUP1 PUSH2 0x324 JUMPI POP PUSH0 PUSH0 SHL DUP2 EQ JUMPDEST ISZERO PUSH2 0x35B JUMPI PUSH1 0x40 MLOAD PUSH32 0x613970E000000000000000000000000000000000000000000000000000000000 DUP2 MSTORE PUSH1 0x4 ADD PUSH1 0x40 MLOAD DUP1 SWAP2 SUB SWAP1 REVERT JUMPDEST PUSH1 0x40 MLOAD DUP1 PUSH1 0x60 ADD PUSH1 0x40 MSTORE DUP1 DUP3 DUP2 MSTORE PUSH1 0x20 ADD TIMESTAMP DUP2 MSTORE PUSH1 0x20 ADD PUSH1 0x1 ISZERO ISZERO DUP2 MSTORE POP PUSH1 0x1 PUSH0 CALLER PUSH20 0xFFFFFFFFFFFFFFFFFFFFFFFFFFFFFFFFFFFFFFFF AND PUSH20 0xFFFFFFFFFFFFFFFFFFFFFFFFFFFFFFFFFFFFFFFF AND DUP2 MSTORE PUSH1 0x20 ADD SWAP1 DUP2 MSTORE PUSH1 0x20 ADD PUSH0 KECCAK256 PUSH0 DUP5 DUP2 MSTORE PUSH1 0x20 ADD SWAP1 DUP2 MSTORE PUSH1 0x20 ADD PUSH0 KECCAK256 PUSH0 DUP3 ADD MLOAD DUP2 PUSH0 ADD SSTORE PUSH1 0x20 DUP3 ADD MLOAD DUP2 PUSH1 0x1 ADD SSTORE PUSH1 0x40 DUP3 ADD MLOAD DUP2 PUSH1 0x2 ADD PUSH0 PUSH2 0x100 EXP DUP2 SLOAD DUP2 PUSH1 0xFF MUL NOT AND SWAP1 DUP4 ISZERO ISZERO MUL OR SWAP1 SSTORE POP SWAP1 POP POP DUP2 CALLER PUSH20 0xFFFFFFFFFFFFFFFFFFFFFFFFFFFFFFFFFFFFFFFF AND PUSH32 0xFB5F20F00CF5CD7248DB4B40CEAC29F091DA1108A255D3955537DB9038B443B DUP4 TIMESTAMP PUSH1 0x40 MLOAD PUSH2 0x442 SWAP3 SWAP2 SWAP1 PUSH2 0xB96 JUMP JUMPDEST PUSH1 0x40 MLOAD DUP1 SWAP2 SUB SWAP1 LOG3 POP POP JUMP JUMPDEST PUSH0 PUSH0 CALLER PUSH20 0xFFFFFFFFFFFFFFFFFFFFFFFFFFFFFFFFFFFFFFFF AND PUSH20 0xFFFFFFFFFFFFFFFFFFFFFFFFFFFFFFFFFFFFFFFF AND DUP2 MSTORE PUSH1 0x20 ADD SWAP1 DUP2 MSTORE PUSH1 0x20 ADD PUSH0 KECCAK256 PUSH1 0x4 ADD PUSH0 SWAP1 SLOAD SWAP1 PUSH2 0x100 EXP SWAP1 DIV PUSH1 0xFF AND ISZERO PUSH2 0x4D1 JUMPI PUSH1 0x40 MLOAD PUSH32 0x3A81D6FC00000000000000000000000000000000000000000000000000000000 DUP2 MSTORE PUSH1 0x4 ADD PUSH1 0x40 MLOAD DUP1 SWAP2 SUB SWAP1 REVERT JUMPDEST PUSH0 PUSH0 SHL DUP4 EQ DUP1 PUSH2 0x4E2 JUMPI POP PUSH0 PUSH0 SHL DUP3 EQ JUMPDEST DUP1 PUSH2 0x4EE JUMPI POP PUSH0 PUSH0 SHL DUP2 EQ JUMPDEST ISZERO PUSH2 0x525 JUMPI PUSH1 0x40 MLOAD PUSH32 0x613970E000000000000000000000000000000000000000000000000000000000 DUP2 MSTORE PUSH1 0x4 ADD PUSH1 0x40 MLOAD DUP1 SWAP2 SUB SWAP1 REVERT JUMPDEST PUSH1 0x40 MLOAD DUP1 PUSH1 0xA0 ADD PUSH1 0x40 MSTORE DUP1 DUP5 DUP2 MSTORE PUSH1 0x20 ADD DUP4 DUP2 MSTORE PUSH1 0x20 ADD DUP3 DUP2 MSTORE PUSH1 0x20 ADD TIMESTAMP DUP2 MSTORE PUSH1 0x20 ADD PUSH1 0x1 ISZERO ISZERO DUP2 MSTORE POP PUSH0 PUSH0 CALLER PUSH20 0xFFFFFFFFFFFFFFFFFFFFFFFFFFFFFFFFFFFFFFFF AND PUSH20 0xFFFFFFFFFFFFFFFFFFFFFFFFFFFFFFFFFFFFFFFF AND DUP2 MSTORE PUSH1 0x20 ADD SWAP1 DUP2 MSTORE PUSH1 0x20 ADD PUSH0 KECCAK256 PUSH0 DUP3 ADD MLOAD DUP2 PUSH0 ADD SSTORE PUSH1 0x20 DUP3 ADD MLOAD DUP2 PUSH1 0x1 ADD SSTORE PUSH1 0x40 DUP3 ADD MLOAD DUP2 PUSH1 0x2 ADD SSTORE PUSH1 0x60 DUP3 ADD MLOAD DUP2 PUSH1 0x3 ADD SSTORE PUSH1 0x80 DUP3 ADD MLOAD DUP2 PUSH1 0x4 ADD PUSH0 PUSH2 0x100 EXP DUP2 SLOAD DUP2 PUSH1 0xFF MUL NOT AND SWAP1 DUP4 ISZERO ISZERO MUL OR SWAP1 SSTORE POP SWAP1 POP POP CALLER PUSH20 0xFFFFFFFFFFFFFFFFFFFFFFFFFFFFFFFFFFFFFFFF AND PUSH32 0xD1728799782E5EC0CAD3E312C9701F68DCC48DE6A9D86A1E47A80ABFE63A9CB0 DUP5 TIMESTAMP PUSH1 0x40 MLOAD PUSH2 0x61B SWAP3 SWAP2 SWAP1 PUSH2 0xB96 JUMP JUMPDEST PUSH1 0x40 MLOAD DUP1 SWAP2 SUB SWAP1 LOG2 POP POP POP JUMP JUMPDEST PUSH0 PUSH1 0x1 PUSH0 DUP5 PUSH20 0xFFFFFFFFFFFFFFFFFFFFFFFFFFFFFFFFFFFFFFFF AND PUSH20 0xFFFFFFFFFFFFFFFFFFFFFFFFFFFFFFFFFFFFFFFF AND DUP2 MSTORE PUSH1 0x20 ADD SWAP1 DUP2 MSTORE PUSH1 0x20 ADD PUSH0 KECCAK256 PUSH0 DUP4 DUP2 MSTORE PUSH1 0x20 ADD SWAP1 DUP2 MSTORE PUSH1 0x20 ADD PUSH0 KECCAK256 PUSH1 0x2 ADD PUSH0 SWAP1 SLOAD SWAP1 PUSH2 0x100 EXP SWAP1 DIV PUSH1 0xFF AND SWAP1 POP SWAP3 SWAP2 POP POP JUMP JUMPDEST PUSH2 0x695 PUSH2 0x8C3 JUMP JUMPDEST PUSH0 PUSH0 DUP4 PUSH20 0xFFFFFFFFFFFFFFFFFFFFFFFFFFFFFFFFFFFFFFFF AND PUSH20 0xFFFFFFFFFFFFFFFFFFFFFFFFFFFFFFFFFFFFFFFF AND DUP2 MSTORE PUSH1 0x20 ADD SWAP1 DUP2 MSTORE PUSH1 0x20 ADD PUSH0 KECCAK256 PUSH1 0x4 ADD PUSH0 SWAP1 SLOAD SWAP1 PUSH2 0x100 EXP SWAP1 DIV PUSH1 0xFF AND PUSH2 0x717 JUMPI PUSH1 0x40 MLOAD PUSH32 0x2163950F00000000000000000000000000000000000000000000000000000000 DUP2 MSTORE PUSH1 0x4 ADD PUSH1 0x40 MLOAD DUP1 SWAP2 SUB SWAP1 REVERT JUMPDEST PUSH0 PUSH0 DUP4 PUSH20 0xFFFFFFFFFFFFFFFFFFFFFFFFFFFFFFFFFFFFFFFF AND PUSH20 0xFFFFFFFFFFFFFFFFFFFFFFFFFFFFFFFFFFFFFFFF AND DUP2 MSTORE PUSH1 0x20 ADD SWAP1 DUP2 MSTORE PUSH1 0x20 ADD PUSH0 KECCAK256 PUSH1 0x40 MLOAD DUP1 PUSH1 0xA0 ADD PUSH1 0x40 MSTORE SWAP1 DUP2 PUSH0 DUP3 ADD SLOAD DUP2 MSTORE PUSH1 0x20 ADD PUSH1 0x1 DUP3 ADD SLOAD DUP2 MSTORE PUSH1 0x20 ADD PUSH1 0x2 DUP3 ADD SLOAD DUP2 MSTORE PUSH1 0x20 ADD PUSH1 0x3 DUP3 ADD SLOAD DUP2 MSTORE PUSH1 0x20 ADD PUSH1 0x4 DUP3 ADD PUSH0 SWAP1 SLOAD SWAP1 PUSH2 0x100 EXP SWAP1 DIV PUSH1 0xFF AND ISZERO ISZERO ISZERO ISZERO DUP2 MSTORE POP POP SWAP1 POP SWAP2 SWAP1 POP JUMP JUMPDEST PUSH0 PUSH0 PUSH0 DUP4 PUSH20 0xFFFFFFFFFFFFFFFFFFFFFFFFFFFFFFFFFFFFFFFF AND PUSH20 0xFFFFFFFFFFFFFFFFFFFFFFFFFFFFFFFFFFFFFFFF AND DUP2 MSTORE PUSH1 0x20 ADD SWAP1 DUP2 MSTORE PUSH1 0x20 ADD PUSH0 KECCAK256 PUSH1 0x4 ADD PUSH0 SWAP1 SLOAD SWAP1 PUSH2 0x100 EXP SWAP1 DIV PUSH1 0xFF AND PUSH2 0x829 JUMPI PUSH1 0x40 MLOAD PUSH32 0x2163950F00000000000000000000000000000000000000000000000000000000 DUP2 MSTORE PUSH1 0x4 ADD PUSH1 0x40 MLOAD DUP1 SWAP2 SUB SWAP1 REVERT JUMPDEST PUSH0 PUSH0 DUP4 PUSH20 0xFFFFFFFFFFFFFFFFFFFFFFFFFFFFFFFFFFFFFFFF AND PUSH20 0xFFFFFFFFFFFFFFFFFFFFFFFFFFFFFFFFFFFFFFFF AND DUP2 MSTORE PUSH1 0x20 ADD SWAP1 DUP2 MSTORE PUSH1 0x20 ADD PUSH0 KECCAK256 PUSH0 ADD SLOAD SWAP1 POP SWAP2 SWAP1 POP JUMP JUMPDEST PUSH0 PUSH0 PUSH0 DUP4 PUSH20 0xFFFFFFFFFFFFFFFFFFFFFFFFFFFFFFFFFFFFFFFF AND PUSH20 0xFFFFFFFFFFFFFFFFFFFFFFFFFFFFFFFFFFFFFFFF AND DUP2 MSTORE PUSH1 0x20 ADD SWAP1 DUP2 MSTORE PUSH1 0x20 ADD PUSH0 KECCAK256 PUSH1 0x4 ADD PUSH0 SWAP1 SLOAD SWAP1 PUSH2 0x100 EXP SWAP1 DIV PUSH1 0xFF AND SWAP1 POP SWAP2 SWAP1 POP JUMP JUMPDEST PUSH1 0x40 MLOAD DUP1 PUSH1 0xA0 ADD PUSH1 0x40 MSTORE DUP1 PUSH0 DUP2 MSTORE PUSH1 0x20 ADD PUSH0 DUP2 MSTORE PUSH1 0x20 ADD PUSH0 DUP2 MSTORE PUSH1 0x20 ADD PUSH0 DUP2 MSTORE PUSH1 0x20 ADD PUSH0 ISZERO ISZERO DUP2 MSTORE POP SWAP1 JUMP JUMPDEST PUSH0 PUSH0 REVERT JUMPDEST PUSH0 PUSH20 0xFFFFFFFFFFFFFFFFFFFFFFFFFFFFFFFFFFFFFFFF DUP3 AND SWAP1 POP SWAP2 SWAP1 POP JUMP JUMPDEST PUSH0 PUSH2 0x91C DUP3 PUSH2 0x8F3 JUMP JUMPDEST SWAP1 POP SWAP2 SWAP1 POP JUMP JUMPDEST PUSH2 0x92C DUP2 PUSH2 0x912 JUMP JUMPDEST DUP2 EQ PUSH2 0x936 JUMPI PUSH0 PUSH0 REVERT JUMPDEST POP JUMP JUMPDEST PUSH0 DUP2 CALLDATALOAD SWAP1 POP PUSH2 0x947 DUP2 PUSH2 0x923 JUMP JUMPDEST SWAP3 SWAP2 POP POP JUMP JUMPDEST PUSH0 DUP2 SWAP1 POP SWAP2 SWAP1 POP JUMP JUMPDEST PUSH2 0x95F DUP2 PUSH2 0x94D JUMP JUMPDEST DUP2 EQ PUSH2 0x969 JUMPI PUSH0 PUSH0 REVERT JUMPDEST POP JUMP JUMPDEST PUSH0 DUP2 CALLDATALOAD SWAP1 POP PUSH2 0x97A DUP2 PUSH2 0x956 JUMP JUMPDEST SWAP3 SWAP2 POP POP JUMP JUMPDEST PUSH0 PUSH0 PUSH1 0x40 DUP4 DUP6 SUB SLT ISZERO PUSH2 0x996 JUMPI PUSH2 0x995 PUSH2 0x8EF JUMP JUMPDEST JUMPDEST PUSH0 PUSH2 0x9A3 DUP6 DUP3 DUP7 ADD PUSH2 0x939 JUMP JUMPDEST SWAP3 POP POP PUSH1 0x20 PUSH2 0x9B4 DUP6 DUP3 DUP7 ADD PUSH2 0x96C JUMP JUMPDEST SWAP2 POP POP SWAP3 POP SWAP3 SWAP1 POP JUMP JUMPDEST PUSH2 0x9C7 DUP2 PUSH2 0x94D JUMP JUMPDEST DUP3 MSTORE POP POP JUMP JUMPDEST PUSH0 PUSH1 0x20 DUP3 ADD SWAP1 POP PUSH2 0x9E0 PUSH0 DUP4 ADD DUP5 PUSH2 0x9BE JUMP JUMPDEST SWAP3 SWAP2 POP POP JUMP JUMPDEST PUSH0 PUSH0 PUSH1 0x40 DUP4 DUP6 SUB SLT ISZERO PUSH2 0x9FC JUMPI PUSH2 0x9FB PUSH2 0x8EF JUMP JUMPDEST JUMPDEST PUSH0 PUSH2 0xA09 DUP6 DUP3 DUP7 ADD PUSH2 0x96C JUMP JUMPDEST SWAP3 POP POP PUSH1 0x20 PUSH2 0xA1A DUP6 DUP3 DUP7 ADD PUSH2 0x96C JUMP JUMPDEST SWAP2 POP POP SWAP3 POP SWAP3 SWAP1 POP JUMP JUMPDEST PUSH0 PUSH0 PUSH0 PUSH1 0x60 DUP5 DUP7 SUB SLT ISZERO PUSH2 0xA3B JUMPI PUSH2 0xA3A PUSH2 0x8EF JUMP JUMPDEST JUMPDEST PUSH0 PUSH2 0xA48 DUP7 DUP3 DUP8 ADD PUSH2 0x96C JUMP JUMPDEST SWAP4 POP POP PUSH1 0x20 PUSH2 0xA59 DUP7 DUP3 DUP8 ADD PUSH2 0x96C JUMP JUMPDEST SWAP3 POP POP PUSH1 0x40 PUSH2 0xA6A DUP7 DUP3 DUP8 ADD PUSH2 0x96C JUMP JUMPDEST SWAP2 POP POP SWAP3 POP SWAP3 POP SWAP3 JUMP JUMPDEST PUSH0 DUP2 ISZERO ISZERO SWAP1 POP SWAP2 SWAP1 POP JUMP JUMPDEST PUSH2 0xA88 DUP2 PUSH2 0xA74 JUMP JUMPDEST DUP3 MSTORE POP POP JUMP JUMPDEST PUSH0 PUSH1 0x20 DUP3 ADD SWAP1 POP PUSH2 0xAA1 PUSH0 DUP4 ADD DUP5 PUSH2 0xA7F JUMP JUMPDEST SWAP3 SWAP2 POP POP JUMP JUMPDEST PUSH0 PUSH1 0x20 DUP3 DUP5 SUB SLT ISZERO PUSH2 0xABC JUMPI PUSH2 0xABB PUSH2 0x8EF JUMP JUMPDEST JUMPDEST PUSH0 PUSH2 0xAC9 DUP5 DUP3 DUP6 ADD PUSH2 0x939 JUMP JUMPDEST SWAP2 POP POP SWAP3 SWAP2 POP POP JUMP JUMPDEST PUSH2 0xADB DUP2 PUSH2 0x94D JUMP JUMPDEST DUP3 MSTORE POP POP JUMP JUMPDEST PUSH0 DUP2 SWAP1 POP SWAP2 SWAP1 POP JUMP JUMPDEST PUSH2 0xAF3 DUP2 PUSH2 0xAE1 JUMP JUMPDEST DUP3 MSTORE POP POP JUMP JUMPDEST PUSH2 0xB02 DUP2 PUSH2 0xA74 JUMP JUMPDEST DUP3 MSTORE POP POP JUMP JUMPDEST PUSH1 0xA0 DUP3 ADD PUSH0 DUP3 ADD MLOAD PUSH2 0xB1C PUSH0 DUP6 ADD DUP3 PUSH2 0xAD2 JUMP JUMPDEST POP PUSH1 0x20 DUP3 ADD MLOAD PUSH2 0xB2F PUSH1 0x20 DUP6 ADD DUP3 PUSH2 0xAD2 JUMP JUMPDEST POP PUSH1 0x40 DUP3 ADD MLOAD PUSH2 0xB42 PUSH1 0x40 DUP6 ADD DUP3 PUSH2 0xAD2 JUMP JUMPDEST POP PUSH1 0x60 DUP3 ADD MLOAD PUSH2 0xB55 PUSH1 0x60 DUP6 ADD DUP3 PUSH2 0xAEA JUMP JUMPDEST POP PUSH1 0x80 DUP3 ADD MLOAD PUSH2 0xB68 PUSH1 0x80 DUP6 ADD DUP3 PUSH2 0xAF9 JUMP JUMPDEST POP POP POP POP JUMP JUMPDEST PUSH0 PUSH1 0xA0 DUP3 ADD SWAP1 POP PUSH2 0xB81 PUSH0 DUP4 ADD DUP5 PUSH2 0xB08 JUMP JUMPDEST SWAP3 SWAP2 POP POP JUMP JUMPDEST PUSH2 0xB90 DUP2 PUSH2 0xAE1 JUMP JUMPDEST DUP3 MSTORE POP POP JUMP JUMPDEST PUSH0 PUSH1 0x40 DUP3 ADD SWAP1 POP PUSH2 0xBA9 PUSH0 DUP4 ADD DUP6 PUSH2 0x9BE JUMP JUMPDEST PUSH2 0xBB6 PUSH1 0x20 DUP4 ADD DUP5 PUSH2 0xB87 JUMP JUMPDEST SWAP4 SWAP3 POP POP POP JUMP INVALID LOG2 PUSH5 0x6970667358 0x22 SLT KECCAK256 BLOBHASH 0x4F SWAP12 PUSH14 0x3B497265CC599442DC9B0882AB09 PUSH22 0xCA4CB34384ED8B7C62F3C1C26D64736F6C634300081E STOP CALLER "
				},
				"gasEstimates": {
					"creation": {
						"codeDepositCost": "611800",
						"executionCost": "643",
						"totalCost": "612443"
					},
					"external": {
						"CredentialExists(address,bytes32)": "3122",
						"GetCredentialHash(address,bytes32)": "infinite",
						"GetUserIdHash(address)": "5122",
						"GetUserInfo(address)": "infinite",
						"IsRegistered(address)": "2941",
						"RegisterUser(bytes32,bytes32,bytes32)": "infinite",
						"StoreCredential(bytes32,bytes32)": "infinite"
					}
				},
				"methodIdentifiers": {
					"CredentialExists(address,bytes32)": "18aa2e4a",
					"GetCredentialHash(address,bytes32)": "0e4edc6d",
					"GetUserIdHash(address)": "4ec507b3",
					"GetUserInfo(address)": "2c9387f6",
					"IsRegistered(address)": "c224122d",
					"RegisterUser(bytes32,bytes32,bytes32)": "15a830d2",
					"StoreCredential(bytes32,bytes32)": "11f3ac84"
				}
			},
			"storageLayout": {
				"storage": [
					{
						"astId": 24,
						"contract": "bc_project_starter/contracts/DigitalIdentity.sol:DigitalIdentity",
						"label": "users",
						"offset": 0,
						"slot": "0",
						"type": "t_mapping(t_address,t_struct(User)12_storage)"
					},
					{
						"astId": 31,
						"contract": "bc_project_starter/contracts/DigitalIdentity.sol:DigitalIdentity",
						"label": "credentials",
						"offset": 0,
						"slot": "1",
						"type": "t_mapping(t_address,t_mapping(t_bytes32,t_struct(Credential)19_storage))"
					}
				],
				"types": {
					"t_address": {
						"encoding": "inplace",
						"label": "address",
						"numberOfBytes": "20"
					},
					"t_bool": {
						"encoding": "inplace",
						"label": "bool",
						"numberOfBytes": "1"
					},
					"t_bytes32": {
						"encoding": "inplace",
						"label": "bytes32",
						"numberOfBytes": "32"
					},
					"t_mapping(t_address,t_mapping(t_bytes32,t_struct(Credential)19_storage))": {
						"encoding": "mapping",
						"key": "t_address",
						"label": "mapping(address => mapping(bytes32 => struct DigitalIdentity.Credential))",
						"numberOfBytes": "32",
						"value": "t_mapping(t_bytes32,t_struct(Credential)19_storage)"
					},
					"t_mapping(t_address,t_struct(User)12_storage)": {
						"encoding": "mapping",
						"key": "t_address",
						"label": "mapping(address => struct DigitalIdentity.User)",
						"numberOfBytes": "32",
						"value": "t_struct(User)12_storage"
					},
					"t_mapping(t_bytes32,t_struct(Credential)19_storage)": {
						"encoding": "mapping",
						"key": "t_bytes32",
						"label": "mapping(bytes32 => struct DigitalIdentity.Credential)",
						"numberOfBytes": "32",
						"value": "t_struct(Credential)19_storage"
					},
					"t_struct(Credential)19_storage": {
						"encoding": "inplace",
						"label": "struct DigitalIdentity.Credential",
						"members": [
							{
								"astId": 14,
								"contract": "bc_project_starter/contracts/DigitalIdentity.sol:DigitalIdentity",
								"label": "credentialHash",
								"offset": 0,
								"slot": "0",
								"type": "t_bytes32"
							},
							{
								"astId": 16,
								"contract": "bc_project_starter/contracts/DigitalIdentity.sol:DigitalIdentity",
								"label": "issuedAt",
								"offset": 0,
								"slot": "1",
								"type": "t_uint256"
							},
							{
								"astId": 18,
								"contract": "bc_project_starter/contracts/DigitalIdentity.sol:DigitalIdentity",
								"label": "exists",
								"offset": 0,
								"slot": "2",
								"type": "t_bool"
							}
						],
						"numberOfBytes": "96"
					},
					"t_struct(User)12_storage": {
						"encoding": "inplace",
						"label": "struct DigitalIdentity.User",
						"members": [
							{
								"astId": 3,
								"contract": "bc_project_starter/contracts/DigitalIdentity.sol:DigitalIdentity",
								"label": "idHash",
								"offset": 0,
								"slot": "0",
								"type": "t_bytes32"
							},
							{
								"astId": 5,
								"contract": "bc_project_starter/contracts/DigitalIdentity.sol:DigitalIdentity",
								"label": "emailHash",
								"offset": 0,
								"slot": "1",
								"type": "t_bytes32"
							},
							{
								"astId": 7,
								"contract": "bc_project_starter/contracts/DigitalIdentity.sol:DigitalIdentity",
								"label": "studentIdHash",
								"offset": 0,
								"slot": "2",
								"type": "t_bytes32"
							},
							{
								"astId": 9,
								"contract": "bc_project_starter/contracts/DigitalIdentity.sol:DigitalIdentity",
								"label": "registeredAt",
								"offset": 0,
								"slot": "3",
								"type": "t_uint256"
							},
							{
								"astId": 11,
								"contract": "bc_project_starter/contracts/DigitalIdentity.sol:DigitalIdentity",
								"label": "exists",
								"offset": 0,
								"slot": "4",
								"type": "t_bool"
							}
						],
						"numberOfBytes": "160"
					},
					"t_uint256": {
						"encoding": "inplace",
						"label": "uint256",
						"numberOfBytes": "32"
					}
				}
			},
			"userdoc": {
				"kind": "user",
				"methods": {},
				"version": 1
			}
		}
	}
}